:020000040800F2
:100000002818002001010008E31A0008F71700086B
:10001000E11A0008E7010008FB3A000800000000B0
:100020000000000000000000000000007F21000828
:100030002D020008000000007D2100088121000839
:100040001B0100081B0100081B0100081B01000820
:100050001B0100081B0100081B0100081B01000810
:100060001B0100081B0100081B0100081B01000800
:100070001B0100081B0100081B0100081B010008F0
:100080001B0100081B0100081B0100081B010008E0
:10009000853A00081B0100081B0100081B0100082D
:1000A0001B0100081B0100081B0100081B010008C0
:1000B0001B0100081B0100081B0100081B010008B0
:1000C0001B0100081B0100081B0100081B010008A0
:1000D0001B0100081B0100081B0100081B01000890
:1000E0001B0100081B0100081B010008DFF80CD0F1
:1000F00000F03CF800480047553B00082818002055
:100100000648804706480047FEE7FEE7FEE7FEE7B1
:10011000FEE7FEE7FEE7FEE7FEE7FEE7E521000873
:10012000ED00000840EA01039B0703D009E008C97D
:10013000121F08C0042AFAD203E011F8013B00F8AC
:10014000013B521EF9D27047D2B201E000F8012BF8
:10015000491EFBD270470022F6E710B513460A4647
:1001600004461946FFF7F0FF204610BD064C074D28
:1001700006E0E06840F0010394E807009847103477
:10018000AC42F6D3FFF7B6FFCC3B0008EC3B0008CF
:1001900070B58C1810F8015B15F0070301D110F849
:1001A000013B2A1106D110F8012B03E010F8016B76
:1001B00001F8016B5B1EF9D12B0705D40023521EF9
:1001C0000DD401F8013BFAE710F8013BCB1A921C61
:1001D00003E013F8015B01F8015B521EF9D5A1425F
:1001E000D8D3002070BDFEE7002070470020704784
:1001F00010B500220449054802F04EFA04490348AC
:1002000002F044FA002010BD340B002088020020C8
:100210004C07002010B50146034802F037FA0248A7
:1002200002F018FA002010BD8802002070477047C5
:1002300070B5044600F008F90546601C02D0044879
:100240000078044400F000F9401BA042FAD370BDCE
:10025000880000202DE9F84FDFF8B891002409F15B
:10026000040A0AF1040B23460F270BF1040EC9E020
:100270000125A5402A40AA427DD1674ED1F804C08D
:10028000ACEB0608B44532D014DCBCF1030F3AD015
:1002900009DCBCF1000F2AD0BCF1010F1CD0BCF16D
:1002A000020F31D11DE0BCF1110F17D0BCF1120FBC
:1002B0002AD119E0B8F5881F19D006DCB8F5803FBF
:1002C00015D0B8F5801F1FD111E0B8F5001F0ED072
:1002D000B8F5041F18D10AE0CB6815E0CB681B1DE8
:1002E00012E0CB6808330FE0CB680C330CE08B686E
:1002F0002BB1012B4FF0080303D0456104E0042328
:1003000002E0056100E00023FF2A01D8064601E073
:1003100000F104064FEA840501D9A5F12005D6F8BD
:10032000008007FA05FC28EA0C0803FA05F548EAFC
:100330000508C6F800804D68ED0062D5374DAE69FE
:1003400046F00106AE61AD6924F0030605F0010533
:100350000095334D06EB050CDCF80850A607360F68
:1003600007FA06F825EA0805DFF8B880404503D10A
:100370004FF0000817E044E0DFF8AC80404502D1C0
:100380004FF001080FE0DFF8A480404502D14FF0A4
:10039000020808E0DFF89880404502D14FF00308DA
:1003A00001E04FF0040808FA06F848EA0508CCF81E
:1003B00008804D68D9F80060ED034D4601D516431D
:1003C00000E096432E604D68DAF80060AD035546B4
:1003D00001D5164300E096432E604D68DBF80060BF
:1003E000ED025D4601D5164300E096432E604D6850
:1003F000DEF80060AD02754601D5164300E0964375
:100400002E60641C0D682A46E5407FF431AFBDE8DC
:10041000F88F00000004014000001110001002409D
:100420000000014000080140000C014000100140A4
:10043000001401408068084000D0012070470AB1D4
:10044000016170470904FBE70148806870470000BC
:10045000880000200248816802781144816070475A
:1004600088000020074810B5016841F010010160C4
:10047000032000F075F8002000F006F800F024F8E2
:10048000002010BD0020024070B50D4D04464FF411
:100490007A712878B1FBF0F00A490968B1FBF0F0F5
:1004A00000F0A8FF48B9102C07D200222146501EA8
:1004B00000F036F800206C6070BD012070BD0000B7
:1004C00088000020940000200C4808B5816941F0A4
:1004D00001018161816901F001010091C16941F06F
:1004E0008051C161C06900F08050009004484168AB
:1004F00021F0E06141F00071416008BD0010024050
:1005000000000140002809DB00F01F02012191409A
:100510004009800000F1E020C0F8001170470000A1
:10052000F0B40E4B1B680C46C3F30223C3F107055E
:10053000042D00D90425191D072901D2002300E04C
:10054000DB1E012606FA05F1491E214099409E4016
:10055000761E16403143F0BC03F0D0BA0CED00E03B
:10056000064900F0070208684FF6FF03184040EA0A
:100570000220034A10430860704700000CED00E0C1
:100580000000FA0510B50C0607D501F0070101EBD4
:10059000810100EBC100283005E001EB810100EB97
:1005A000C10000F5B47099B232B101220273018129
:1005B000190C4181002010BD00220273C180F9E7AF
:1005C000704701EB810200EBC202D0F8E802D26B67
:1005D00002F053BA01EB810200EBC202D0F8E8024C
:1005E000D2F87C2102F0ACBA70B504460B0601F0DB
:1005F000070000EB800104EBC1014FF001024FF056
:10060000000503D581F82920283103E081F86951DC
:1006100001F5B471087094F8A802012808D084F894
:10062000A822206802F0CCFE84F8A852002070BDF9
:10063000022070BD70B5044601F00F006268904260
:1006400001D9012070BD0B0601F0070000EB80010D
:1006500004EBC1014FF001024FF0000503D581F812
:100660002920283103E081F8695101F5B4718D70BA
:10067000087094F8A802012808D084F8A8222068FD
:1006800002F03BFF84F8A852002070BD022070BD2C
:100690002DE9F05F04685FEA424C0B788D69B4F88D
:1006A00050C04FF000064BF68F7948F2800A48F6AA
:1006B0008F7B48F2C00E4FF480672AD54FF00208B6
:1006C00008EBC308C44407EB4C07E45BC4F309041C
:1006D000A54203D32D1B8D6101D00BE08E6106680E
:1006E00036F8235005EA090585F4005545EA0A0560
:1006F00026F82350520609D50D78036833F82520D3
:1007000002EA0B0242EA0E0223F8252084B30A898A
:1007100029E04FF0060808EBC308C44407EB4C0778
:10072000E45BC4F30904A54203D32D1B8D6101D002
:100730000BE08E61066836F8235005EA090585F45A
:10074000005545EA0A0526F82350520609D40B78CD
:10075000056835F8232002EA0B0242EA0E0225F86A
:1007600023202CB14A8949690068234603F094F993
:100770002046BDE8F09F2DE9F05F05460C46006875
:100780005FEA426C16462278A369B0F850C04FF079
:10079000000148F68F774CF280094FF6FF7B4FF44B
:1007A000004E4FF4806A6CD54FF0020808EBC20887
:1007B000E0440AEB480C30F80C00C0F30900834217
:1007C00011D91B1AA3610FD0730407D52E6836F810
:1007D00022303B4043EA090326F8223094F82420D3
:1007E000012A08D0C6E0A16111462846FFF7E9FEBC
:1007F00070046CD4BEE0626902446261E269024442
:10080000E2612369226A9A4202D31846111A03E070
:1008100084F824100AB110462162617811B10129CF
:1008200023D02BE02968B1F850201144227801EB45
:10083000021101F2044148B13E280FD84208C30713
:1008400000D0521C0BEA82220A8017E00A8822F4A8
:10085000F8420A800A8842F40042F5E74209C306DA
:1008600000D1521E4EEA8222EEE72968B1F85020EC
:100870001144227801EB0211A1F8040483B2228909
:1008800074E04FF0060808EBC208E0440AEB480C9D
:1008900030F80C00C0F30900834211D31B1AA36186
:1008A0000FD0730407D42E6836F822303B4043EA59
:1008B000090326F8223094F82420012A11D059E0A7
:1008C000A16111462846FFF77CFE700452D42278BD
:1008D000296831F82200384040EA090021F8220056
:1008E00048E0626902446261E2690244E2612369AC
:1008F000226A9A4203D31846111A216204E00AB10F
:100900001046216284F824106278296812B1012A05
:1009100022D029E0B1F850201144227801EB0211D5
:1009200001F20C4148B13E280FD84208C30700D05D
:10093000521C0BEA82220A8016E00A8822F4F8424E
:100940000A800A8842F40042F5E74209C30600D152
:10095000521E4EEA8222EEE7B1F85020114422786E
:1009600001EB0211A1F80C04628983B26169286865
:1009700003F0B0F82278296831F8220048F6BF73F6
:10098000184080F0300048F28003184321F822001C
:100990000020BDE8F09F01F0070101EB810100EBB1
:1009A000C100D0F8840170472DE9F04104460F06DC
:1009B00001F0070000EB800104EBC1014FF00106DC
:1009C0004FF0000503D581F82960283103E081F854
:1009D000695101F5B47108700A61CB704A7802B1AF
:1009E000C881022B00D10D7194F8A802012809D00A
:1009F00084F8A862206802F0B5FB284684F8A85263
:100A0000BDE8F0810220FBE770B50C4601F0070558
:100A100005EB850100EBC101C1E95F230022C1F8AC
:100A2000842181F8692181F8685101F5B471620768
:100A3000006802F0B7FD002070BD70B504460D4699
:100A400001F007006168884201D9012070BD2906C4
:100A50004FF000064FF0010207D500EB800104EBD8
:100A6000C10181F82920283107E005EB850104EB5D
:100A7000C10181F8696101F5B4718A70087094F858
:100A8000A802012807D084F8A822206802F071FD8E
:100A9000680702D006E0022070BD04F52C712068C2
:100AA00002F029FD84F8A862002070BD70B50C46E4
:100AB00001F0070505EB850100EBC101C1E90F233A
:100AC000012281F84C208B6400234B6481F829209B
:100AD00001F8285F6207006802F064FD002070BD25
:100AE0001FB50446006802F0D3FF000402D520467B
:100AF00000F0F8FF206802F0CBFF40050CD520681D
:100B000030F8441F21F480610180204600F01EF976
:100B10000021204600F035F9206802F0B9FF4004BA
:100B200005D5206830F8441F21F4804101802068F9
:100B300002F0AEFF800405D5206830F8441F21F490
:100B400000510180206802F0A3FFC00414D5206882
:100B500030F8401F21F004010180206830F8401F68
:100B600021F008010180204600F003F9206830F8E8
:100B7000441F21F480510180206802F089FF0005A4
:100B80003ED522680020694632F8203021F8103026
:100B9000401CC0B20828F7D332F8400F40F00100E3
:100BA0001080206830F8402F22F001020280206877
:100BB000B0F844205205FBD530F8442F22F480626F
:100BC00002800020236831F8102023F82020401CE8
:100BD000C0B20828F6D3206830F8401F41F0080161
:100BE0000180206830F8441F21F4006101802068F2
:100BF00030F8401F41F004010180204600F0F6F873
:100C0000206802F045FF800508D5206830F8441FB1
:100C100021F400710180204600F0AFF8206802F056
:100C200037FFC00505D5206830F8441F21F48071D6
:100C300001801FBD2DE9F04186B0040004D094F876
:100C4000A902002520B108E0012006B0BDE8F0812E
:100C500084F8A852204600F05BF8032084F8A9022B
:100C6000206802F041FC04F1100114228846684615
:100C7000FFF758FA94E80F0002F0A0FB0226D0BB61
:100C80000021206802F01EFF002001270FE000BFB6
:100C900000EB800104EBC10181F8297001F8280FF5
:100CA000C881CD700D614D61401CC0B28D6161681D
:100CB0008142EDD8002011E000EB800104EBC1017E
:100CC00081F8695181F8680181F86B51C1F8785158
:100CD000C1F87C51401CC0B2C1F8805161688142AA
:100CE000EAD8142241466846FFF71CFA94E80F0040
:100CF00002F0F1FB10B184F8A962A5E784F8245052
:100D000084F8A972206802F0E4FB00209DE700004F
:100D100008B500680B49884212D10B48C16941F4FB
:100D20000001C161C069002200F40000009011467A
:100D30001420FFF7F5FBBDE808401420FFF7E2BBE5
:100D400008BD0000005C00400010024070B5044681
:100D500080680125022801D0FFF769FA2946D4F8F6
:100D6000E80201F0D6FFD4F8E802BDE8704001F0D7
:100D700092BFD0F8E80201F0B6BFD0F8E80201F067
:100D8000BCBF10B5044690F8A80201280BD0012082
:100D900084F8A80284F82410206802F095FE002050
:100DA00084F8A80210BD022010BDD0F8E82200F59A
:100DB0002C71104601F0B9BF10B5044690F8A80296
:100DC000012810D0012084F8A802206802F051FE0A
:100DD00001212046FFF7F4FB206802F078FB002099
:100DE00084F8A80210BD022010BD000010B5044612
:100DF000D0F8E80201F0D8FFA069002804D0034829
:100E0000016841F00601016010BD000010ED00E036
:100E10002DE9F84305460078354CC00754D0E06909
:100E20000026C00008D4E06940F08050E061E0692D
:100E3000012600F0805000902E480168C90512D4A8
:100E40000168804641F480710160FFF7FDFA0746B2
:100E500005E000BFFFF7F8FAC01B642823D8D8F8D4
:100E60000000C005F6D5206A10F4407021D0A98892
:100E700001F4407181421CD0206A1F49012220F4F4
:100E800040700A6000220A602062C00711D0FFF79C
:100E9000DBFA074641F2883808E000BFFFF7D4FAD2
:100EA000C11B414502D90320BDE8F883206A8007B1
:100EB000F4D5206A696820F44070084320621EB1AE
:100EC000E06920F08050E0612878800705D56068EF
:100ED000A96820F44040084360602878C00605D522
:100EE0006068E96820F48000084360600020DBE768
:100EF0000010024000700040400442422DE9F047DB
:100F00000F46050061D0434E306800F00700B8423C
:100F100009D2306820F0070038433060306800F0B4
:100F20000700B84251D128683B4C810712D54007D1
:100F300003D5606840F4E06060602878000703D55E
:100F4000606840F4605060606068A96820F0F0005C
:100F5000084360602878C00728D06868012810D04E
:100F60002168022810D0890700292EDA616821F053
:100F7000030101436160FFF767FA804641F2883957
:100F80000DE021688903EFE78901EDE7FFF75CFADF
:100F9000A0EB0801494502D90320BDE8F08760684D
:100FA000696800F00C00B0EB810FEFD1306800F001
:100FB0000700B8420BD9306820F007003843306092
:100FC000306800F00700B84201D00120E5E728783A
:100FD000400705D56068E96820F4E0600843606078
:100FE0002878000706D56068296920F4605040EA37
:100FF000C100606000F038F86168084AC1F303116D
:10100000515CC8400649086006480068FFF73CFA92
:101010000020C2E70020024000100240B43B00085C
:10102000940000208C0000200448054900684968AD
:10103000044AC1F30221515CC8407047940000206B
:1010400000100240C43B0008044805490068496894
:10105000044AC1F3C221515CC8407047940000208B
:1010600000100240C43B000812A185B00FC98DE8F2
:101070000F0014A0144A006804905168134801F04E
:101080000C03042B10D0082B0ED1C1F38343C903EA
:101090001DF803000AD5516804AAC1F34041515C10
:1010A0000A4A5043B0FBF1F005B070470849484385
:1010B000FAE7000002030405060708090A0B0C0DF5
:1010C0000E0F1010010200000010024000127A0002
:1010D00000093D002DE9F84F040070D02078C04D84
:1010E000C00749D06868C0F38100012807D068684C
:1010F000C0F38100022809D16868C00306D52868BA
:10110000800339D560680028E7D035E06068B0F525
:10111000803F0BD010B1B0F5A02F11D0286820F47B
:1011200080302860286820F4802002E0286840F49D
:1011300080302860606890B1FFF786F906460AE0C3
:10114000286840F480202860F0E700BFFFF77CF9B2
:10115000801B642873D828688003F7D50CE0FFF75C
:1011600073F9064605E000BFFFF76EF9801B64289F
:10117000F0D828688003F7D420789A4E80074FF083
:1011800001094FF0000839D5686810F00C0F07D03E
:101190006868C0F38100022809D16868C00306D4DA
:1011A0002868800714D52069012808D110E020693B
:1011B000B0B1C6F80090FFF747F9074605E00AE12D
:1011C000FFF742F9C01B0228C4D828688007F7D56A
:1011D0002868616920F0F80040EAC10028600DE04D
:1011E000C6F80080FFF730F9074604E0FFF72CF956
:1011F000C01B022823D828688007F7D4207800076E
:101200002CD57948A169D9B1C0F80090FFF71CF935
:10121000074604E0FFF718F9C01B02280FD8686AD8
:101220008007F7D571484FF4FA510068B0FBF1F030
:10123000009000BF0098411E0091FAD20EE080E0BD
:10124000C0F80080FFF700F9074604E0FFF7FCF85C
:10125000C01B022875D8686A8007F7D42078400739
:1012600060D5E8690027C00008D4E86940F08050E4
:10127000E861E869012700F0805000905C4801684F
:10128000C90513D40168834641F480710160FFF7FA
:10129000DBF8824606E000BFFFF7D6F8A0EB0A00B5
:1012A00064284ED8DBF80000C005F5D5E0680128B9
:1012B0000AD008B1052813D0286A20F0010028625E
:1012C000286A20F0040002E0286A40F00100286249
:1012D000E06841F2883B98B1FFF7B6F882460BE030
:1012E000286A40F004002862EEE700BFFFF7ACF880
:1012F000A0EB0A0159455AD8286A8007F6D50CE0B8
:10130000FFF7A2F8824605E0FFF79EF8A0EB0A017E
:1013100059454CD8286A8007F6D41FB1E86920F0F7
:101320008050E861E06988B36968C1F381010229EE
:1013300044D00228C6F8608004D0FFF785F8044640
:1013400038E034E0FFF780F8074604E0FFF77CF868
:10135000C01B02282BD828688001F7D4206AB0F57A
:10136000803F05D16868A16820F4003008436860B8
:10137000D4E908010843696821F4741108436860DE
:10138000C6F86090FFF760F8044606E025E000BF6D
:10139000FFF75AF8001B022809D828688001F7D502
:1013A0001BE000BFFFF750F8001B022802D9032002
:1013B000BDE8F88F28688001F4D40EE00128F7D04A
:1013C0006868226A00F48031914204D1616A00F4B5
:1013D0007010884201D00120EAE70020E8E7000011
:1013E000001002400000424280044242940000206B
:1013F0000070004010B5401EB0F1807F01D3012085
:1014000010BD4FF0E02460610F21601702F076FB01
:101410000020A06107202061002010BD70B590F869
:101420003C20012A26D0012480F83C40022280F88A
:101430003D2003685A689D6822F070060A683243AE
:101440005A600D4B02689A4208D0B2F1804F05D025
:101450000A4B9A4202D00A4B9A4204D1496825F0BD
:1014600080031943916080F83D40002180F83C10D2
:10147000084670BD022070BD002C014000040040F1
:101480000008004010B586B0002100910191029142
:10149000039102681B4902241B48B2F1804F23D0FC
:1014A0001A4B9A421ED18A6942F004028A618A6903
:1014B00002F0040204928A6942F008028A61896992
:1014C000039401F008010491C021CDE9001469469C
:1014D000FEF7C0FE0320CDE9000469460C480394E2
:1014E000FEF7B8FE06B010BD8A6942F004028A61B8
:1014F0008969039401F0040104910F21CDE90014DE
:101500006946EDE700100240000801400004004079
:10151000000C014070B5044690F83C000D460128CF
:101520000AD0012084F83C0042B1042A18D0082ACD
:101530002AD00C2A4DD139E0022070BD206800F07D
:1015400089FE2068816941F0080181612068816914
:1015500021F004018161206881692A69114311E049
:10156000206800F09FFE2068816941F4006181617C
:101570002068816921F480618161206881692A691C
:1015800041EA0221816124E0206800F0B7FE206872
:10159000C16941F00801C1612068C16921F00401FD
:1015A000C1612068C1692A69114311E0206800F017
:1015B000D1FE2068C16941F40061C1612068C16940
:1015C00021F48061C1612068C1692A6941EA022170
:1015D000C161002084F83C0070BD10B5040003D048
:1015E00094F83D0010B107E0012010BD002084F800
:1015F0003C00204600F01EF8022084F83D00211D2A
:10160000206800F0F1FD012084F8460084F83E00D7
:1016100084F83F0084F8400084F8410084F84200D8
:1016200084F8430084F8440084F8450084F83D00C1
:10163000002010BD08B501680B48B1F1804F0BD0F8
:101640000A4A914207D1C16941F00201C161C069F2
:1016500000F00200009008BDC16941F00101C161C4
:10166000C06900F00100F5E70010024000040040EE
:1016700070B5040004D094F83900002510B106E0DC
:10168000012070BD84F83850204600F023F8242053
:1016900084F839002068C16821F40051C1602046F7
:1016A00000F07AFE2068016921F490410161206810
:1016B000416921F02A0141612068C16841F400516B
:1016C000C160E563202084F8390084F83A000020E6
:1016D00070BD000030B585B00024009401940294E0
:1016E000039400681449884224D11448816941F464
:1016F00080418161816901F480410491816941F0F7
:101700000401816180690E4D00F0040004904FF4E3
:101710000070009002200190032003906946284643
:10172000FEF798FD2815CDE9000469462846029485
:10173000FEF790FD05B030BD0038014000100240BA
:10174000000801402DE9F843044690F839001F468F
:1017500016460D4620284CD1C5B1BEB194F83800CC
:10176000012846D0012084F838004FF00008C4F862
:101770003C80212084F83900FEF766FEA68481466D
:10178000E684A068B0F5805F03D004E00120BDE8E6
:10179000F883206928B12E465FF0000584F8388070
:1017A0000EE00026FAE78021204600F051FEA0B9A5
:1017B000AEB116F8010B21684860E08C401EE08451
:1017C000E08C4B464FF0000200970028EBD14FF021
:1017D0004001204600F03CFE30B10320D7E735F849
:1017E000020BC0F30800E6E7202084F8390000204F
:1017F000CDE70220CBE7FEE7F0B500230A24302531
:1018000037261F4611E000BFB4EB107F02D905EB6D
:10181000107C01E006EB107C01F813C001EB430CD7
:1018200000015B1C8CF80170DBB29342ECD3F0BD7D
:101830002DE9F04F85B000243248009401940294C1
:101840000394816941F010018161816901F0100107
:101850000491816941F020018161816901F02001D9
:101860000491816941F004018161816901F0040101
:101870000491816941F0080181618069DFF88890F5
:1018800000F008004FF40055049000222946484615
:10189000FEF7D5FDDFF874B04FF6E4470022394675
:1018A0005846FEF7CCFDDFF868A04FF480780022A0
:1018B00041465046FEF7C3FD0095022601250396DA
:1018C000CDE9015469464846FEF7C4FC00970396EB
:1018D000CDE9015469465846FEF7BCFCCDF80080BE
:1018E0000396CDE9015469465046FEF7B3FC10203B
:1018F000CDE90004694658460294FEF7ABFC05B0FA
:10190000BDE8F08F0010024000100140000C0140C3
:101910000008014010B58AB0002407941C216846D5
:101920000894FEF718FC21484FF08041C0E90014EC
:101930004FF6FF71C0E9024104618461FFF74DFE7B
:1019400008B1FEF774FC079407A918480894FFF73C
:1019500065FD08B1FEF76BFC6020CDE90004029440
:101960000022694611480494FFF7D4FD08B1FEF740
:101970005EFC042269460D48FFF7CCFD08B1FEF776
:1019800056FC082269460948FFF7C4FD08B1FEF776
:101990004EFC0C2269460548FFF7BCFD08B1FEF776
:1019A00046FC0248FFF76EFD0AB010BDAC010020F6
:1019B00010B58AB0002407941C2168460894FEF7ED
:1019C000CAFB23482149016041F61F41C0E90114C7
:1019D00040F2E731C0E903148461FFF7FEFD08B16E
:1019E000FEF725FC079407A919480894FFF716FD90
:1019F00008B1FEF71CFC6020CDE90004029400222F
:101A0000694613480494FFF785FD08B1FEF70FFC03
:101A1000042269460E48FFF77DFD08B1FEF707FC7A
:101A2000082269460A48FFF775FD08B1FEF7FFFB7B
:101A30000C2269460648FFF76DFD08B1FEF7F7FB7B
:101A40000348FFF71FFD0AB010BD0000000400406E
:101A5000F40100200C4810B50A4901604FF4E1314F
:101A60004160002181600C22C160C0E904128161E3
:101A7000C161FFF7FDFD002803D0BDE81040FEF76F
:101A8000D6BB10BD003801403C02002010B500223A
:101A90000F49104800F0CAFF08B1FEF7C8FB0E4915
:101AA0000C4801F0A7F908B1FEF7C1FB0B49094842
:101AB00000F0E4FD08B1FEF7BAFB064801F0F0F9CA
:101AC000002803D0BDE81040FEF7B1BB10BD0000F8
:101AD00028000020880200207401002078000020E7
:101AE000FEE770472DE9F84F044640F68F7B48F635
:101AF0000F7A4FF002094FF4806868E1B0F84410A3
:101B000011F00F0638D030F8267039047ED530F841
:101B1000261001EA0B0141F0800120F8261006EBA7
:101B2000860004EBC00595F8740105F5B47500282E
:101B30006DD0E87802286BD02A78216831F822002D
:101B400048F68F73184048F2C003184321F822006A
:101B50002978206830F82120B0F8503052047DD523
:101B600009EBC1015A1808EB4201415A8905890D58
:101B7000009174D02A89D2E0C9062DD4018801EAE7
:101B80000A0141F400410180206804F12805B0F801
:101B900050302A7809EBC2015A1808EB4201405A2A
:101BA000C0F309006064E16B0844E0630021204653
:101BB000FEF707FD94F8240000289ED0A8690028AD
:101BC0009BD194F8240040F080012068A0F84C10CC
:101BD000002084F82400FAE0018804F5B4750A05B1
:101BE00021D5B0F850302A78062101EBC2015A18ED
:101BF00008EB4201405A04F52C71C0F30903EB6174
:101C0000EA88206801F048FF216802E0A2E062E073
:101C100072E0088800EA0B0040F08000088020464F
:101C2000FFF7C3F8D3E00904D5D5018801EA0B0119
:101C300041F0800101802068B0F850202B78062107
:101C400001EBC3010A4408EB4201405A83059B0D96
:101C5000EB6110D0696971B1EA8801E053E051E0AD
:101C6000206801F019FFE96968690844686100218A
:101C70002046FEF7AFFC2068B0F8501008442969F0
:101C800000F20C4051B13E2910D84A08C90700D0D3
:101C9000521C4FF6FF7101EA82210FE0018821F406
:101CA000F8410180018841F4004107E04A09C90672
:101CB00000D1521E4FF4004141EA82210180206888
:101CC00001884BF68F72114081F4405148F2800236
:101CD000114301807BE02068B0F850102A78062379
:101CE00003EBC2020A4408EB4201415A8905890DFF
:101CF000009118D0EA8812E03A4629462046FEF7BD
:101D0000C7FC00900FE0062202EBC1015A1808EB55
:101D10004201415A8905890D009104D06A89696997
:101D2000009B01F0B9FEE96900980844E86169691F
:101D3000009808446861A86918B12969009881422F
:101D400004D929782046FEF745FC03E0294620689F
:101D500001F028FC38063AD5226806EB860004EB31
:101D6000C00132F8260000EA0A0040F4004022F8E0
:101D7000260091F82B002831022801D1F80522D441
:101D80002268B2F850300D7809EBC500034408EB27
:101D90004300105A8A69C0F3090082420CD9121A12
:101DA0008A610BD04A6902444A61CA691044C86119
:101DB000206801F0F7FB0AE000208861E9B22046C4
:101DC000FEF7FFFB03E03A462046FEF7D4FC20680E
:101DD000B0F8441009043FF591AE0020BDE8F88F3B
:101DE0000149085C704700007C0200200020044983
:101DF00002460A54401CC0B20928FAD370470000BA
:101E00007C020020F8B506460120ADF800001F4C0A
:101E100000216170ADF800001D4D4FF6FF772FE0F7
:101E2000BDF80000304201D0012200E00022202154
:101E30002846FEF704FB012280212846FEF7FFFA20
:101E40000A2001F07AFE002280212846FEF7F7FAE8
:101E50000A2001F072FE012280212846FEF7EFFAE7
:101E600010212846FEF7E6FA20B16078BDF8001090
:101E700008436070BDF8000007EA4000ADF80000BC
:101E8000BDF80000FF28CBD9F8BD00007C0200207F
:101E9000000C014070B5FFF7A9FF00F07FF80B4878
:101EA0000B4BB0F803100A481B1D41800020012491
:101EB00013F8105000F101006D1E04FA05F20A42F9
:101EC000C0B202D01028F3D3002070BD7C020020E5
:101ED0000200002010B5174C002240212046FEF7DA
:101EE000AEFA102001F029FE0120FFF78BFF4320FE
:101EF000FFF788FF0020FFF785FF0120FFF782FF33
:101F00000020FFF77FFF0020FFF77CFF0020FFF796
:101F100079FF0020FFF776FF0020FFF773FF012213
:101F200040212046FEF78BFABDE81040102001F05A
:101F300004BE0000000C014010B5174C00224021E7
:101F40002046FEF77CFA102001F0F7FD0120FFF794
:101F500059FF4320FFF756FF0020FFF753FF0020F3
:101F6000FFF750FF5A20FFF74DFF5A20FFF74AFFB7
:101F70005A20FFF747FF5A20FFF744FF5A20FFF788
:101F800041FF012240212046FEF759FABDE81040EA
:101F9000102001F0D2BD0000000C01402DE9FC41F1
:101FA00000208DF800000126ADF804602A4C02469E
:101FB00040212046FEF743FA284D2878FFF722FFFC
:101FC0006878FFF71FFF02208DF80000244D4FF6C0
:101FD000FF7734E0ADF8046025E00122802120463F
:101FE000FEF72DFA002280212046FEF728FA0A206B
:101FF00001F0A3FD012280212046FEF720FA1021E6
:102000002046FEF717FA40B19DF80000BDF8041015
:10201000285C08439DF800106854BDF8040007EAE6
:102020004000ADF80400BDF80400FF28D5D90A200F
:1020300001F083FD9DF80000401C8DF800009DF824
:1020400000000928C6D302B02046BDE8F0410122B5
:102050004021FEF7F4B90000000C0140020000200E
:102060007C02002010B500F00FF800F00DF800F031
:102070000BF8FFF72FFF00F02DF800F059F8BDE83E
:102080001040FFF759BF000010B5114C002240214D
:102090002046FEF7D4F9102001F04FFD0120FFF794
:1020A000B1FE4220FFF7AEFE0020FFF7ABFE00209E
:1020B000FFF7A8FE0020FFF7A5FE012240212046E1
:1020C000FEF7BDF9BDE81040102001F036BD00005C
:1020D000000C014010B5154C002240212046FEF7AF
:1020E000AEF90120FFF78EFE4420FFF78BFE0020A3
:1020F000FFF788FE0120FFF785FEEE20FFF782FE46
:102100000020FFF77FFE0020FFF77CFE0020FFF796
:1021100079FE0020FFF776FE012240212046FEF7DF
:102120008EF9BDE81040102001F007BD000C014001
:1021300010B5114C002240212046FEF780F91020F6
:1021400001F0FBFC0120FFF75DFE4D20FFF75AFE7A
:102150000020FFF757FE0020FFF754FE0120FFF795
:1021600051FE012240212046FEF769F9BDE81040EA
:10217000102001F0E2BC0000000C014070477047E5
:10218000FEF768B930B593B028216846FDF7E3FF44
:1021900014210AA8FDF7DFFF002401200F941094FA
:1021A0001194010412948DE8130004904FF4E01090
:1021B000CDE90810022507956846FEF78BFF0F2032
:1021C000CDE90A056802CDE90C4002210AA80E9467
:1021D000FEF794FE10200F9012940FA8FEF718FE41
:1021E00013B030BD70470000F0B50268164B174CB5
:1021F000174D4FF08047984205D0B84203D0A04217
:1022000001D0A84203D122F070064A6832439842B6
:1022100005D0B84203D0A04201D0A84203D122F495
:102220004074CA6822434C6922F080022243026053
:102230008A68C2620A688262984201D109690163B0
:1022400001214161F0BD0000002C0140000400406C
:102250000008004030B5026A22F001020262026A00
:102260004368846924F073050C682C4322F002054E
:102270008A682A430A4DA8420BD122F00805CA6891
:1022800023F440732A434D6922F004021D438B69F5
:102290002B434360846149684163026230BD0000A2
:1022A000002C014030B5026A22F010020262026A7C
:1022B000436884690D6824F4E64444EA05248D6883
:1022C00022F0200242EA05120B4DA8420ED1CD6841
:1022D00022F0800242EA05124D6923F4406343EA8A
:1022E00085038D6922F0400243EA850343608461DF
:1022F00049688163026230BD002C014030B5026A3A
:1023000022F480720262036A4268C46923F4007393
:1023100024F073050C682C438D6843EA05230C4DAB
:10232000A8420ED1CD6823F4006343EA05234D692A
:1023300022F4405242EA05128D6923F4806342EA96
:1023400005124260C4614968C163036230BD000088
:10235000002C014030B5026A22F480520262046A05
:102360004268C3690D6823F4E64343EA05238D6898
:1023700024F4005444EA0534064DA84204D14D69C2
:1023800022F4804242EA85124260C36149680164D6
:10239000046230BD002C014070B50446006801693C
:1023A000E26821F44051114301612169A0680843AA
:1023B000616908432168CA6841F20C639A43024389
:1023C000CA6020684169A26921F4407111434161EA
:1023D0001E492068884202D1FEF736FE01E0FEF772
:1023E00023FE00EBC00101EB001260686421800055
:1023F000B2FBF0F3B3FBF1F36FF018067343B2FBDB
:10240000F0F5B2FBF0F605EB8305322303EB05157F
:10241000B5FBF1F5B6FBF1F605F0F00505EB061599
:10242000B2FBF0F6B2FBF0F0B0FBF1F06FF0180287
:10243000504306EB800003EB0010B0FBF1F0216885
:1024400000F00F002844886070BD00000038014093
:102450002DE9F041984617460E460446069D1DE0BC
:10246000681C1BD02DB1FDF7EFFFA0EB0800A842C0
:1024700014D92068C16821F4D071C1602068416915
:1024800021F001014161202084F8390084F83A00EC
:10249000002084F838000320BDE8F081206800683F
:1024A00036EA000004D00020B842D9D00020F3E77B
:1024B0000120F9E72DE9F041D0F8C032D0F8B82278
:1024C000CAB101EB810500EB85040026E7693FB145
:1024D00003EBC5039B6BB7FBF3F503FB157323B14C
:1024E000C2F814620020BDE8F08100231A46E661BC
:1024F00000F063FCF6E70220F5E770B50546D0F87A
:10250000B84200F05EFBC4F80C02D5F8B80248B13E
:10251000D5F8BC12D4F80402CA6804F503719047D8
:10252000002070BD022070BD70B5044600268121D8
:1025300000F09AFA002501212046E56200F094FAA5
:1025400082212046C4F86C5100F08EFA2564D4F83C
:10255000B80248B1D4F8BC0204F52E744068804734
:10256000206800F0FAFD2560304670BD10B5D0E956
:10257000AE4159B194F80002FF2807D08B6894F857
:10258000012221469847FF2084F80002002010BD58
:102590000A210180004870479C00002043210180EF
:1025A00000487047EC00002043210180004870473C
:1025B000A80000204321018000487047300100201E
:1025C0002DE9F04104460026007C4FF400770125F8
:1025D00090B3402302228121204600F047FB402394
:1025E000E56202220121204600F040FB082303227D
:1025F00082212046C4F86C5100F038FB4FF407707C
:10260000256400F0ABFDC4F8B802F8B10546D4F873
:10261000BC02006880470020C5F81402C5F8180203
:10262000207CD5F8042298B140230121204600F0F7
:1026300029FB3046BDE8F081FFE73B4602228121BD
:10264000204600F013FB3B46E562CAE70126F0E7AF
:102650003B46EAE710B5D0F8B81269B1027C002A0F
:10266000D1F8042205D04023012100F00BFB00200B
:1026700010BD4FF40073F7E7022010BD02460220A0
:10268000002902D00020C2F8BC127047D0F8B8026E
:10269000C0F8041200207047D0F8B802C0F8102229
:1026A000C0F80812002070472DE9FC410546D0F81B
:1026B000B87200208DF80000ADF8040006460878D6
:1026C0000C4610F0600121D020293BD1E288AAB14C
:1026D0000006607807D5D5F8BC128B683946984754
:1026E000E288394626E087F80002A07987F80102DF
:1026F000E2883946284600F04FF828E0D5F8BC12A9
:10270000607800228B682146984720E0607820B1ED
:102710000A2809D00B2815D110E095F89C0203284F
:1027200010D1022201A905E095F89C02032809D1E5
:1027300001226946284600F049F808E095F89C0215
:10274000032804D02146284600F01BF80226304614
:10275000BDE8FC8110B5D0F8B42252689047002043
:1027600010BD134610B50A46002100F08BFA002078
:1027700010BD134610B50A46002100F01EFB0020D4
:1027800010BD10B50446802100F0FCFA2046BDE8DB
:102790001040002100F0F6BA10B50323C0F85C2108
:1027A000C0F89432C0F8602113460A46002100F0B8
:1027B00069FA002010BD10B505210023C0F894125D
:1027C0001A46194600F05EFA002010BD10B502232B
:1027D000C261C0F89432026213460A46002100F03A
:1027E000ECFA002010BD10B504210023C0F89412AB
:1027F0001A46194600F0E1FA002010BD10B50A464D
:10280000024903A000F0E2F8004810BD4C0500208A
:1028100043444320436F6E666967000012200880BE
:10282000004870474800002010B50A46024903A03E
:1028300000F0CCF8004810BD4C0500204344432074
:10284000496E74657266616365000000042008804B
:10285000004870474400002010B50A46024903A012
:1028600000F0B4F8004810BD4C05002053544D69E9
:1028700063726F656C656374726F6E696373000079
:1028800010B50A46024903A000F0A0F8004810BDA8
:102890004C05002053544D333220566972747561D3
:1028A0006C20436F6D506F727400000010B51A20D9
:1028B00008800A480168001D0468001D00680818A7
:1028C00009D008220649FEF797FF05490422103176
:1028D0002046FEF791FF0248801E10BDE8F7FF1F5B
:1028E0005E000020F8B504460020ADF800004888DE
:1028F0000D46010A082948D2DFE801F0470409170C
:1029000047473C45D4F8B012207C0A6819E0207C87
:1029100002260028D4F8B40205D0C16A6846884768
:10292000014646703EE0816AF8E7C0B206282CD224
:10293000DFE800F0030A1014181CD4F8B002426853
:1029400005E0694690471CE0D4F8B0028268E2B125
:10295000207CF6E7D4F8B002C268F8E7D4F8B002F9
:102960000269F4E7D4F8B0024269F0E7D4F8B002A3
:102970008269ECE7207C40B9D4F8B402416B684628
:10298000884701460EE0207C20B129462046FFF70B
:10299000F8FEF8BDD4F8B402016B684688470146DA
:1029A00007204870BDF8000048B1EA8852B1824261
:1029B00000D90246ADF800202046FFF707FFE8885F
:1029C0000028E6D12046FFF70EFFF8BD70B50023C2
:1029D00000281ED00446002502E06D1CEDB2641CE8
:1029E0002678002EF9D1022404EB450414801278D5
:1029F000CA545B1C0322CA5400245B1C06E0CA5460
:102A00005B1CDAB28C54521CD3B2401C0278002AF0
:102A1000F5D170BD01004FF0000004D0012901D0B4
:102A2000022901D0022070470120704710B580B103
:102A3000D0F8B43213B10023C0F8B43209B1C0F8F1
:102A4000B012012180F89C12027000F0BFF8002043
:102A500010BD022010BD10B5D0F8C002FDF7EAFD90
:102A6000BDE81040FFF7D6BF10B5D0F8C002FDF7A3
:102A7000BBFDBDE81040FFF7CDBF2DE9F041174683
:102A8000044651B1D4F8B40242691AB194F89C02D8
:102A9000032851D00220BDE8F081D4F894320025FB
:102AA00004F11400022B03D0042B3AD0C3B33CE052
:102AB000D0E903639E4207D9F11AC1608AB2394650
:102AC0002046FFF756FE12E08068B0FBF3F103FBEF
:102AD000110199B9984211D3D4F8981288420DD2B5
:102AE000002211462046FFF744FEC4F89852002306
:102AF0001A461946204600F0C5F816E0D4F8B4028C
:102B0000C16829B194F89C02032801D12046884766
:102B10008021204600F036F92046FFF74CFE04E005
:102B2000FFE78021204600F02DF994F8A00201284B
:102B300004D184F8A05201E0204690470020AAE783
:102B400070B51546044649B1D4F8B40282691AB189
:102B500094F89C02032830D0022070BDD4F894125F
:102B600004F5AA70032902D005291ED027E0D0E978
:102B700003218A420BD9531AC3600846834200D30B
:102B800003469AB229462046FFF7EBFD17E0D4F83A
:102B9000B402016929B194F89C02032801D12046AE
:102BA00088472046FFF71FFE09E000200146C4F8D1
:102BB0009402204600F0E6F801E02046904700200D
:102BC00070BDD0F8C002FDF7E6BE000010B50446A7
:102BD0001C481D49C0F8E842C4F8C0020160082141
:102BE00041600221816000218161C1610162FEF7C3
:102BF00021F808B1FDF71BFB0022D4F8C00218230E
:102C0000114604F53074FDF7BDFC582300228021E5
:102C10002068FDF7B7FCC023002281212068FDF762
:102C2000B1FC4FF48873002201212068FDF7AAFC53
:102C30004FF48073002282212068FDF7A3FC00205E
:102C400010BD00003C110020005C00400A0601F0AD
:102C50007F01D0F8C00201EB810100EBC10002D579
:102C600090F82A00704790F86A01704710B51C462A
:102C70001346D0F8C0022246FDF796FEBDE810408C
:102C8000FFF7C8BE10B5D0F8C002FDF7BDFEBDE825
:102C90001040FFF7BFBE70B5002204464023114626
:102CA000FFF7E4FF40260125C4F8646133460022A3
:102CB00080212046C4F85851FFF7D8FF6662A5610D
:102CC00084F89C520020C4F894026060C4F8A40206
:102CD000D4F8B80228B1D4F8B402002142682046E2
:102CE0009047002070BD90F89C12042903D190F801
:102CF0009D1280F89C120020704710B590F89C122D
:102D0000032904D1D0F8B412C96901B18847002061
:102D100010BD01740020704710B5D0F8C002FEF756
:102D200030F8BDE81040FFF775BE70B5044600F5F9
:102D30002A70054600F04AF80120C4F89402B4F85D
:102D4000AE02C4F8980294F8A80210F01F010AD04D
:102D500001290DD0022910D000F08001204600F09A
:102D600011F8002070BD2946204600F09EF8F8E7D3
:102D70002946204600F0CAF9F3E72946204600F02C
:102D80001DF9EEE710B5D0F8C002FDF756FEBDE81C
:102D90001040FFF73FBE10B5D0F8C002FEF70CF8A8
:102DA000BDE81040FFF736BE90F89C1280F89D12E7
:102DB000042180F89C120020704710B5D0F8C002A2
:102DC000FDF774FEBDE81040FFF724BE0A780270DC
:102DD0004A7842708A78CB7802EB032242800A79E3
:102DE0004B7902EB032282808A79C97902EB0121B7
:102DF000C18070470246002011B1C2F8B41270477A
:102E00000220704710B5D0F8B42202241AB112681B
:102E1000904700B90024204610BD000070B50E4652
:102E20001E4D897804462970012931D894F89C02F6
:102E300002280BD003280FD031462046FFF7A1FC13
:102E400029782046BDE87040FFF784BCD9B1032043
:102E5000616084F89C0209E071B16068884212D018
:102E6000C1B22046FFF776FC297861602046FFF763
:102E7000C9FF02280CD006E0022084F89C022046FC
:102E80006160FFF767FC2046BDE87040FFF7ABBC10
:102E900031462046BDE87040FFF773BC9800002023
:102EA00010B5FFF778FF002010BD2DE9F0410A783A
:102EB000002612F0600208D0202A01D0402A70D1EA
:102EC000D0F8B422926890476DE04B78002201253B
:102ED0000A2B66D2DFE803F0405D6557650805659B
:102EE0002C29FFF7FFFC5EE004468888D8B9C88823
:102EF000C8B94888802816D200F07F0794F89C0251
:102F0000032810D084F89E7239462046FFF704FF4C
:102F10002046FFF768FC1FB1022084F89C0242E0C3
:102F200084F89C523FE020463BE0FFF777FF3AE011
:102F3000CB88012B35D190F89C32012B04D0022B89
:102F400002D0032B2DD104E08260012200F10801A0
:102F500016E00122011D13E090F89C22012A03D003
:102F6000022A01D0032A1CD1CA88022A19D1C560BD
:102F7000D0F8A41209B10321C160022200F10C01B2
:102F8000FFF724FC0FE0498801290CD1C0F8A452B6
:102F900011E090F89C32012B08D0022B06D0032BB5
:102FA00004D0FFF7EEFB3046BDE8F08149880129E7
:102FB000F9D1C0F8A422FFF716FCF4E72DE9F0419F
:102FC0000A46044610780027097910F060030AD0F9
:102FD000202B01D0402B50D1D4F8B4021146836885
:102FE000204698478FE0C0F34110012806D0507862
:102FF000D0B301282AD003283FD107E0D4F8B40287
:10300000114683682046BDE8F041184794F89C02B9
:10301000022802D0032872D10AE071B380296ED051
:103020002046FFF7AFFE80212046FFF7ABFE6AE0A7
:10303000508838B931B1802904D0D08810B92046E1
:10304000FFF7A0FE2046FFF7CEFB5CE094F89C0261
:103050000228E2D0032852D1508898BB4806F1D00C
:103060002046FFF7F8FCEDE7FFE794F89C02002606
:10307000022803D0032842D112E040E009B18029A0
:103080003DD1080601F07F0000EB800004EB8001D9
:1030900001D5143101E001F5AA7102220E602AE087
:1030A000080601F00F0000EB800004EB80000AD559
:1030B000806920B301F07F0000EB800004EB800505
:1030C00014350BE01FE0D0F85801C0B101F07F00CB
:1030D00000EB800004EB800505F5AA7541B180295D
:1030E00006D02046FFF7B2FD10B10120286000E0B5
:1030F0002E60022229462046FFF768FB03E01146B6
:103100002046FFF73EFB3846BDE8F08170B5054626
:1031100008780C4610F0600003D0202801D0402829
:1031200016D195F89C02012803D0022801D003286B
:103130000ED1207901280BD8D5F8B4028268284630
:103140009047E188014306D12846FFF74CFB02E097
:103150002846FFF716FB002070BD704700487047F7
:103160001C0F00202DE9F0470C78002630F82430A1
:1031700048F68F121340CA78002A7DD0012A7CD0ED
:10318000022A02D0032A7FD0012648F2800213438C
:1031900020F824300D7830F8254048F68F731C4015
:1031A0002C43144320F825400D7B48F2C00C48F610
:1031B000BF744CF280074BF68F79EDB391F8008025
:1031C000C24630F8285048F280181D4045EA0805EC
:1031D00020F82A50B0F8505091F80080054405EBD3
:1031E0000815B1F8088028F00108A5F80084B0F8A7
:1031F000505091F80080054405EB0815B1F80A809D
:1032000028F00108A5F808844D78002D0D7830F8D5
:1032100025804FEA48487DD0B8F1000F07DA30F832
:10322000258008EA030848EA070820F825800F7877
:1032300030F827506D0600E02CE006D530F8275016
:103240001D4045EA0C0520F82750CB780D78012B5E
:1032500030F8253003EA040301D083F02003134340
:1032600020F825300B7830F8231001EA09011143CA
:1032700020F82310304602E003E008E004E0BDE857
:10328000F08743F4007380E743F4C0637DE743F4C1
:1032900080637AE74D782DB3B0F850500F7805442D
:1032A00005EB0715CF8827F00107A5F800740F7804
:1032B00030F827506D0606D530F827501D4045EAF6
:1032C0000C0520F82750CB78012B06D00B7830F86E
:1032D0002310214081F02001C9E70B7830F823103A
:1032E0002140C4E7B0F850400D78044404EB0514C5
:1032F000CD8825F00105A4F80854B0F850400D78A9
:10330000044404EB05140D6904F20C4475B13E2D20
:1033100014D800E030E04FEA550CED0701D00CF175
:10332000010C4FF6FF7505EA8C2511E0258825F480
:10333000F8452580258845F4004509E04FEA551CED
:10334000ED0601D1ACF1010C4FF4004545EA8C25A6
:1033500025800D7830F82540640405D530F82540E7
:103360001C403C4320F825400B7830F8231001EA3C
:10337000090181F440517AE7B8F1000F07DA30F81B
:10338000258008EA030848EA070820F825800F7816
:1033900030F827506D0606D530F827501D4045EA15
:1033A0000C0520F827500D7830F8253003EA090382
:1033B00083F44053134320F825308EE700207047F4
:1033C0002DE9F04391F80C804F780A7848F6BF7CDD
:1033D0004BF68F7948F2800348F2C0054CF2800624
:1033E00048F68F74B8F1000F28D0002F30F8227003
:1033F0004FEA474748D0002F05DA30F822702740BF
:10340000374320F822700A7830F822707F0605D5FD
:1034100030F8227027402F4320F822700D7830F8C2
:1034200025202240324320F825200C7830F8242033
:1034300002EA0C021A4320F824201AE07FB130F887
:103440002260760605D530F8226026402E4320F80B
:1034500022600A7830F8221001EA0C010EE030F800
:1034600022506D0405D530F822502540354320F810
:1034700022500A7830F8221001EA0901194320F895
:1034800022100020BDE8F083002F05DA30F822700A
:103490002740374320F822700A7830F822607606F9
:1034A00005D530F8226026402E4320F822600E78A1
:1034B00030F8262022402A4320F826200C7830F8C5
:1034C000242002EA09021A4320F82420C1E7002040
:1034D000704700207047012120F8401F0021018023
:1034E000818001820846704730F8401F21F43F4137
:1034F0000180002070470020704730B50A7BB2BBC6
:103500004A7848F68F7548F28004C2B10B7830F8DB
:103510002320520607D530F823202A4048F2C00560
:103520002A4320F82320CA78012A20D00A7830F8CC
:10353000221048F6BF73194081F0200114E00A7888
:1035400030F822305B0407D530F822302B404CF2A3
:1035500080052B4320F822300A7830F822104BF6F1
:103560008F73194081F44051214320F8221000202C
:1035700030BD10B54A780978002A48F2800330F847
:10358000212005D048F6BF74224082F0100204E0EA
:103590004BF68F74224082F480521A4320F8212087
:1035A000002010BD2DE9F04F0D464A78097B0446F6
:1035B0004FF0000948F68F7A48F2800B4FF6FF77FC
:1035C0004FF40048012A09D000297DD0E87802286C
:1035D0007BD001287AD00120BDE8F08FAE69286940
:1035E000864200D9064681B1E97802291CD02878A4
:1035F00034F820104906B4F85010214401EB0010B3
:1036000070D5A0F80C646A8928E1B3B2EA88204634
:10361000696900F05FFAB4F850002978204400EBA3
:103620000110A0F8046435E1296A814276D929782D
:1036300034F8210048F2801200EA0A00104324F80E
:103640002100286A801B2862287834F82010490657
:10365000697876D511B1012921D027E0B4F850104E
:10366000214401EB001000F20C404EB13E2E0FD869
:103670007108F20700D0491C07EA8121018015E09A
:10368000018821F4F8410180018841F40041F5E707
:103690007109F20600D1491E48EA8121EEE7B4F82B
:1036A0005020111901EB0010A0F80C646A89B3B224
:1036B0002046696900F00EFA68693044686129693A
:1036C000286A884206D902E0EDE00DE178E1801B2E
:1036D000286202E00646C5F82090687818B10128F3
:1036E00024D02BE0B7E0B4F850002978204400EB58
:1036F000011000F204404EB13E2E10D87108F207BE
:1037000000D0491C07EA8121018017E0018821F4DB
:10371000F8410180018841F40041F5E786E0710934
:10372000F20600D1491E48EA8121EDE7B4F85000C5
:103730002978204400EB0110A0F804642A896FE086
:10374000FFE711B1012921D027E0B4F8501021443E
:1037500001EB001000F204404EB13E2E0FD871086C
:10376000F20700D0491C07EA8121018015E0018899
:1037700021F4F8410180018841F40041F5E7710925
:10378000F20600D1491E48EA8121EEE7B4F8501054
:10379000214401EB0010A0F804642A89B3B220464A
:1037A000696900F097F96869304468612969286A95
:1037B000884202D9801B286202E00646C5F82090A4
:1037C000687810B1012822D029E0B4F85000297897
:1037D000204400EB011000F20C404EB13E2E0FD8F9
:1037E0007108F20700D0491C07EA8121018016E028
:1037F000018821F4F8410180018841F40041F5E796
:103800007109F20600D1491E48EA8121EEE7B4F8B9
:1038100050100819297800EB0110A0F80C646A898F
:10382000B3B22046696900F055F933E02A7834F8DC
:10383000220048F68F63184040EA0B0024F822006B
:10384000B4F850002A78204400EB02108BB2A0F8A4
:1038500004342A89E5E7A0F804642A89B3B2204633
:10386000696900F037F9687810B1012808D011E0D3
:10387000297834F8210048F2C00200EA0A0006E084
:10388000297834F821004CF2800200EA0A00104343
:1038900024F82100297834F8210048F6BF7210403E
:1038A00080F03000DFE0A9692869814202D9091A55
:1038B000A961B6E00846C5F81890B2E0088820F47F
:1038C000F8400880088840F400400BE03E2876D895
:1038D0004208C00700D0521C07EA822002E000BF65
:1038E00048EA82200880B6E092B9B4F850002978FE
:1038F000204400EB0110296900F2044069B13E291F
:1039000013D84A08C90700D0521C07EA8221018057
:10391000687888B1012832D03AE0018821F4F84172
:103920000180018841F40041F1E74A09C90600D14C
:10393000521E48EA8221EAE7B4F850002978204470
:1039400000EB0110296900F20C4049B13E290FD863
:103950004A08C90700D0521C07EA8221018017E0FB
:10396000018821F4F8410180018841F40041F5E724
:103970004A09C90600D1521E48EA8221EEE7B4F88E
:1039800050100819297800EB0110298AA0F80C14AE
:10399000E869B0B3297834F82100420401D5420621
:1039A00003D444F24002104255D134F8210048F2C9
:1039B000C00200EA0A00104324F821004BE03CE07A
:1039C000A9692869814202D9091AA96102E0084659
:1039D000C5F818908AB9B4F850102A78214401EB40
:1039E000021101F2044168B13E2813D84208C3070E
:1039F00000D0521C07EA82220A80697889B1012925
:103A000021D028E00A8822F4F8420A800A8842F489
:103A10000042F1E74209C30600D1521E48EA822261
:103A2000EAE7B4F850102A78214401EB021101F2C0
:103A30000C4100287FF44AAF40E74209C0067FF4FA
:103A40004FAF521E4CE7B4F8502011192A7801EB01
:103A50000211A1F80C04297834F821004BF68F727A
:103A6000104080F4405040EA0B0024F82100002070
:103A7000B2E50021A0F844104FF43F41A0F84010F7
:103A8000002070470148FDF72BB800003C110020D2
:103A9000B0F844007047000010B500EB42005C082D
:103AA00000F5806009D000BF30F8042B01F8012B2D
:103AB000120A01F8012B641EF6D1DA0701D0008842
:103AC000087010BD0020704711B98021A0F84C107B
:103AD0000020704710B55B1C00EB42005B0800F54E
:103AE000806009D011F8012B11F8014B42EA042241
:103AF00020F8042B5B1EF5D110BDFEE70907090E67
:103B0000002804DB00F1E02080F80014704700F08A
:103B10000F0000F1E02080F8141D704702E008C893
:103B2000121F08C1002AFAD170477047002001E037
:103B300001C1121F002AFBD1704708B500EBC0007D
:103B400020F06040009000BF0098411E0091FAD222
:103B500008BD0000FCF786FCFEF714FBFDF768FECD
:103B6000FDF7D8FEFDF724FFFDF790FFFDF772FF8C
:103B7000FEF778FA0D4C4FF47A7500BFFEF78AF91C
:103B800020700520FEF72CF960700A2301220749F6
:103B90000748FDF7D7FD05490A230122491C0448BF
:103BA000FDF7D0FD2846FCF743FBE7E700000020C7
:103BB0003C0200200000000000000000010203049D
:103BC000060708090000000001020304EC3B00089E
:103BD00000000020AC01000090010008D03C00086B
:103BE000AC0100207C1600002C3B0008211B014288
:103BF000041112021203120412051206120712080F
:103C00001209120A120B120C120D120E120F3210A0
:103C1000131D281B084D041A59041A81041AAD04F7
:103C200013FD271B0829081E04030904124313026D
:103C300002164083044057260201020301031A1AA8
:103C40000313F1011B08ED041AE9041315021A0805
:103C50002F3968515324F41B0A0697212A401C1C53
:103C600009024357111DC0320904AF1A020B130594
:103C70002416100105240110090104240202052460
:103C800006170107058203081C1009048D320A1D5E
:103C900007050102432C070581070938442A40071C
:103CA0002A8107112B0907440A3B044413C1251B31
:103CB00008290413A92642081A6D0C13B5241B0801
:103CC000FB04C11AA9182A9D1C19041A91040000AA
:04000005080000ED02
:00000001FF
