:020000040800F2
:100000003018002001010008E71D0008FB1A000855
:10001000E51D00084F0400081B3E0008000000001A
:100020000000000000000000000000008324000821
:1000300095040008000000008124000885240008C1
:100040001B0100081B0100081B0100081B01000820
:100050001B0100081B0100081B0100081B01000810
:100060001B0100081B0100081B0100081B01000800
:100070001B0100081B0100081B0100081B010008F0
:100080001B0100081B0100081B0100081B010008E0
:10009000A53D00081B0100081B0100081B0100080A
:1000A0001B0100081B0100081B0100081B010008C0
:1000B0001B0100081B0100081B0100081B010008B0
:1000C0001B0100081B0100081B0100081B010008A0
:1000D0001B0100081B0100081B0100081B01000890
:1000E0001B0100081B0100081B010008DFF80CD0F1
:1000F00000F070F9004800471D410008301800204A
:100100000648804706480047FEE7FEE7FEE7FEE7B1
:10011000FEE7FEE7FEE7FEE7FEE7FEE7E92400086C
:10012000ED00000840EA01039B0703D009E008C97D
:10013000121F08C0042AFAD203E011F8013B00F8AC
:10014000013B521EF9D27047D2B201E000F8012BF8
:10015000491EFBD270470022F6E710B513460A4647
:1001600004461946FFF7F0FF204610BDF0B480EAC0
:100170000102D40F4200B2EB410F02D20246084600
:1001800011464A0042D0C30DDDB2C1F3C752AD1AC9
:10019000202D35DAC1F3160141F4000204B15242B8
:1001A000C5F1200602FA06F12A411044B3EBD05FF4
:1001B00023D0C4B1012DA0EBC35009DCF0BC4FF03B
:1001C000004202EAC352DBB200F5000000F0D3B8EF
:1001D000400000F1807000EBC350A0F1807040EA55
:1001E000D170490009E0490841EAC071A0EBC35051
:1001F00000F50000400800EBC350F0BC00F0B2B8BE
:100200006142012202EB4101001BF6E7F0BC70479E
:1002100081F00041AAE780F00040A7E780EA0102F0
:1002200010B502F00043400022D04A001FD0010E5A
:1002300001EB1261C0F35600C2F3560240F4000015
:1002400042F40002A0FB022000047F39140400D015
:10025000401C50EA124001D44000491EC2B20C06B4
:1002600004EBD010401C4008802A02D003E000209C
:1002700010BD20F00100002900DA0020184310BD55
:1002800030B480EA010202F0004530F0004221F073
:10029000004013D090B1C30DD40DC2F31601C0F3CA
:1002A0001600E41A41F4000140F400027D3491424A
:1002B00001D3641C00E04900002C02DA30BC0020AD
:1002C00070474FF400000023914201D3891A034381
:1002D00040084FEA4101F7D151B1914202D14FF0AC
:1002E000004105E002D24FF0010101E06FF0010191
:1002F00003EBC450284430BC00F034B896230022ED
:10030000114600F038B800F0004220F00040C10D66
:10031000C0F3160040F400007F2901DA0020704786
:10032000962903DCC1F19601C84001E09639884066
:10033000002AF4D04042704730B50B4601460020F9
:100340002022012409E021FA02F59D4205D303FA97
:1003500002F5491B04FA02F52844151EA2F1010218
:10036000F1DC30BD0029A8BF7047401C490008BF20
:1003700020F00100704710B4B0FA80FC00FA0CF0D5
:1003800050EA010404BF10BC704749B1CCF120040D
:1003900021FA04F411FA0CF118BF0121214308439A
:1003A000A3EB0C01CB1D4FEA00614FEA102042BFC6
:1003B000002010BC704700EBC35010440029A4BFBC
:1003C00010BC7047401C490008BF20F0010010BC61
:1003D00070470000064C074D06E0E06840F001035E
:1003E00094E8070098471034AC42F6D3FFF782FE3A
:1003F000EC4200080C43000870B58C1810F8015B43
:1004000015F0070301D110F8013B2A1106D110F8AD
:10041000012B03E010F8016B01F8016B5B1EF9D1B1
:100420002B0705D40023521E0DD401F8013BFAE737
:1004300010F8013BCB1A921C03E013F8015B01F8A2
:10044000015B521EF9D5A142D8D3002070BDFEE752
:10045000002070470020704710B50022044905486D
:1004600002F0AAFA0449034802F0A0FA002010BDE5
:100470003C0B0020900200205407002010B50146DC
:10048000034802F093FA024802F074FA002010BD0B
:10049000900200207047704770B5044600F008F9DC
:1004A0000546601C02D004480078044400F000F9BE
:1004B000401BA042FAD370BD8C0000202DE9F84FFC
:1004C000DFF8B891002409F1040A0AF1040B23466D
:1004D0000F270BF1040EC9E00125A5402A40AA42CE
:1004E0007DD1674ED1F804C0ACEB0608B44532D0DC
:1004F00014DCBCF1030F3AD009DCBCF1000F2AD0A8
:10050000BCF1010F1CD0BCF1020F31D11DE0BCF1D8
:10051000110F17D0BCF1120F2AD119E0B8F5881FBE
:1005200019D006DCB8F5803F15D0B8F5801F1FD173
:1005300011E0B8F5001F0ED0B8F5041F18D10AE07D
:10054000CB6815E0CB681B1D12E0CB6808330FE0C9
:10055000CB680C330CE08B682BB1012B4FF00803F8
:1005600003D0456104E0042302E0056100E00023BC
:10057000FF2A01D8064601E000F104064FEA84058F
:1005800001D9A5F12005D6F8008007FA05FC28EA74
:100590000C0803FA05F548EA0508C6F800804D681E
:1005A000ED0062D5374DAE6946F00106AE61AD692A
:1005B00024F0030605F001050095334D06EB050C0C
:1005C000DCF80850A607360F07FA06F825EA0805F2
:1005D000DFF8B880404503D14FF0000817E044E051
:1005E000DFF8AC80404502D14FF001080FE0DFF8A2
:1005F000A480404502D14FF0020808E0DFF898805F
:10060000404502D14FF0030801E04FF0040808FA1A
:1006100006F848EA0508CCF808804D68D9F800606B
:10062000ED034D4601D5164300E096432E604D681C
:10063000DAF80060AD03554601D5164300E0964355
:100640002E604D68DBF80060ED025D4601D5164373
:1006500000E096432E604D68DEF80060AD027546FE
:1006600001D5164300E096432E60641C0D682A46AF
:10067000E5407FF431AFBDE8F88F00000004014091
:10068000000011100010024000000140000801406D
:10069000000C014000100140001401408068084037
:1006A00000D0012070470AB1016170470904FBE7DF
:1006B00001488068704700008C0000200248816873
:1006C00002781144816070478C000020074810B503
:1006D000016841F010010160032000F075F800206E
:1006E00000F006F800F024F8002010BD00200240C1
:1006F00070B50D4D04464FF47A712878B1FBF0F0D7
:100700000A490968B1FBF0F000F0A8FF48B9102CC5
:1007100007D200222146501E00F036F800206C60FF
:1007200070BD012070BD00008C00002098000020EA
:100730000C4808B5816941F001018161816901F0CE
:1007400001010091C16941F08051C161C06900F0AF
:10075000805000900448416821F0E06141F0007150
:10076000416008BD0010024000000140002809DB84
:1007700000F01F02012191404009800000F1E020BB
:10078000C0F8001170470000F0B40E4B1B680C4617
:10079000C3F30223C3F10705042D00D90425191D55
:1007A000072901D2002300E0DB1E012606FA05F12D
:1007B000491E214099409E40761E16403143F0BCB0
:1007C00003F03CBB0CED00E0064900F007020868AE
:1007D0004FF6FF03184040EA0220034A1043086026
:1007E000704700000CED00E00000FA0510B50C06A3
:1007F00007D501F0070101EB810100EBC1002830B2
:1008000005E001EB810100EBC10000F5B47099B285
:1008100032B1012202730181190C4181002010BD07
:1008200000220273C180F9E7704701EB810200EBFF
:10083000C202D0F8E802D26B02F0AFBA01EB81023B
:1008400000EBC202D0F8E802D2F87C2102F008BB2B
:1008500070B504460B0601F0070000EB800104EBC5
:10086000C1014FF001024FF0000503D581F82920A6
:10087000283103E081F8695101F5B471087094F8EA
:10088000A802012808D084F8A822206802F028FFD6
:1008900084F8A852002070BD022070BD70B50446D7
:1008A00001F00F006268904201D9012070BD0B0673
:1008B00001F0070000EB800104EBC1014FF00102E1
:1008C0004FF0000503D581F82920283103E081F895
:1008D000695101F5B4718D70087094F8A80201286F
:1008E00008D084F8A822206802F097FF84F8A85264
:1008F000002070BD022070BD2DE9F05F04685FEA42
:10090000424C0B788D69B4F850C04FF000064BF69E
:100910008F7948F2800A48F68F7B48F2C00E4FF478
:1009200080672AD54FF0020808EBC308C44407EBE0
:100930004C07E45BC4F30904A54203D32D1B8D616E
:1009400001D00BE08E61066836F8235005EA0905F0
:1009500085F4005545EA0A0526F82350520609D5C4
:100960000D78036833F8252002EA0B0242EA0E02F2
:1009700023F8252084B30A8929E04FF0060808EB04
:10098000C308C44407EB4C07E45BC4F30904A54265
:1009900003D32D1B8D6101D00BE08E61066836F804
:1009A000235005EA090585F4005545EA0A0526F8AD
:1009B0002350520609D40B78056835F8232002EA43
:1009C0000B0242EA0E0225F823202CB14A8949691C
:1009D0000068234603F0F0F92046BDE8F09F2DE9BA
:1009E000F05F05460C4600685FEA426C16462278C6
:1009F000A369B0F850C04FF0000148F68F774CF271
:100A000080094FF6FF7B4FF4004E4FF4806A6CD59F
:100A10004FF0020808EBC208E0440AEB480C30F83B
:100A20000C00C0F30900834211D91B1AA3610FD037
:100A3000730407D52E6836F822303B4043EA090399
:100A400026F8223094F82420012A08D0C6E0A161BB
:100A500011462846FFF7E9FE70046CD4BEE06269D7
:100A600002446261E2690244E2612369226A9A42B5
:100A700002D31846111A03E084F824100AB1104674
:100A80002162617811B1012923D02BE02968B1F8E6
:100A900050201144227801EB021101F2044148B1C7
:100AA0003E280FD84208C30700D0521C0BEA82220E
:100AB0000A8017E00A8822F4F8420A800A8842F481
:100AC0000042F5E74209C30600D1521E4EEA8222D7
:100AD000EEE72968B1F850201144227801EB0211A9
:100AE000A1F8040483B2228974E04FF0060808EBF1
:100AF000C208E0440AEB480C30F80C00C0F30900CF
:100B0000834211D31B1AA3610FD0730407D42E683C
:100B100036F822303B4043EA090326F8223094F8A5
:100B20002420012A11D059E0A16111462846FFF77F
:100B30007CFE700452D42278296831F822003840B3
:100B400040EA090021F8220048E06269024462613B
:100B5000E2690244E2612369226A9A4203D3184699
:100B6000111A216204E00AB11046216284F82410AF
:100B70006278296812B1012A22D029E0B1F8502008
:100B80001144227801EB021101F20C4148B13E28D8
:100B90000FD84208C30700D0521C0BEA82220A80F9
:100BA00016E00A8822F4F8420A800A8842F40042D9
:100BB000F5E74209C30600D1521E4EEA8222EEE753
:100BC000B1F850201144227801EB0211A1F80C0475
:100BD000628983B26169286803F00CF92278296878
:100BE00031F8220048F6BF73184080F0300048F218
:100BF0008003184321F822000020BDE8F09F01F097
:100C0000070101EB810100EBC100D0F884017047BE
:100C10002DE9F04104460F0601F0070000EB8001CA
:100C200004EBC1014FF001064FF0000503D581F838
:100C30002960283103E081F8695101F5B471087029
:100C40000A61CB704A7802B1C881022B00D10D71C4
:100C500094F8A802012809D084F8A862206802F05C
:100C600011FC284684F8A852BDE8F0810220FBE779
:100C700070B50C4601F0070505EB850100EBC101DD
:100C8000C1E95F230022C1F8842181F8692181F83C
:100C9000685101F5B4716207006802F013FE00208C
:100CA00070BD70B504460D4601F0070061688842CA
:100CB00001D9012070BD29064FF000064FF0010256
:100CC00007D500EB800104EBC10181F82920283110
:100CD00007E005EB850104EBC10181F8696101F5CD
:100CE000B4718A70087094F8A802012807D084F8BB
:100CF000A822206802F0CDFD680702D006E002209D
:100D000070BD04F52C71206802F085FD84F8A8629E
:100D1000002070BD70B50C4601F0070505EB85019C
:100D200000EBC101C1E90F23012281F84C208B6443
:100D300000234B6481F8292001F8285F62070068CE
:100D400002F0C0FD002070BD1FB50446006803F02E
:100D50002FF8000402D5204601F046F8206803F081
:100D600027F840050CD5206830F8441F21F4806135
:100D70000180204600F01EF90021204600F035F9E0
:100D8000206803F015F8400405D5206830F8441FAA
:100D900021F480410180206803F00AF8800405D521
:100DA000206830F8441F21F400510180206802F0CF
:100DB000FFFFC00414D5206830F8401F21F0040163
:100DC0000180206830F8401F21F008010180204692
:100DD00000F003F9206830F8441F21F480510180AD
:100DE000206802F0E5FF00053ED522680020694634
:100DF00032F8203021F81030401CC0B20828F7D358
:100E000032F8400F40F001001080206830F8402F89
:100E100022F0010202802068B0F844205205FBD580
:100E200030F8442F22F4806202800020236831F8D9
:100E3000102023F82020401CC0B20828F6D32068D8
:100E400030F8401F41F008010180206830F8441F4D
:100E500021F400610180206830F8401F41F0040156
:100E60000180204600F0F6F8206802F0A1FF80051E
:100E700008D5206830F8441F21F400710180204615
:100E800000F0AFF8206802F093FFC00505D5206898
:100E900030F8441F21F4807101801FBD2DE9F0411D
:100EA00086B0040004D094F8A902002520B108E01F
:100EB000012006B0BDE8F08184F8A852204600F079
:100EC0005BF8032084F8A902206802F09DFC04F17D
:100ED0001001142288466846FFF724F994E80F00B1
:100EE00002F0FCFB0226D0BB0021206802F07AFF52
:100EF000002001270FE000BF00EB800104EBC101DF
:100F000081F8297001F8280FC881CD700D614D61FD
:100F1000401CC0B28D6161688142EDD8002011E0B3
:100F200000EB800104EBC10181F8695181F868018F
:100F300081F86B51C1F87851C1F87C51401CC0B2A6
:100F4000C1F8805161688142EAD81422414668465E
:100F5000FFF7E8F894E80F0002F04DFC10B184F8B8
:100F6000A962A5E784F8245084F8A972206802F0E9
:100F700040FC00209DE7000008B500680B4988424E
:100F800012D10B48C16941F40001C161C06900225E
:100F900000F40000009011461420FFF7F5FBBDE8B7
:100FA00008401420FFF7E2BB08BD0000005C0040D1
:100FB0000010024070B5044680680125022801D067
:100FC000FFF769FA2946D4F8E80202F032F8D4F8BB
:100FD000E802BDE8704001F0EEBFD0F8E80202F090
:100FE00012B8D0F8E80202F018B810B5044690F82C
:100FF000A80201280BD0012084F8A80284F824104C
:10100000206802F0F1FE002084F8A80210BD022042
:1010100010BDD0F8E82200F52C71104602F015B88A
:1010200010B5044690F8A802012810D0012084F8D9
:10103000A802206802F0ADFE01212046FFF7F4FB74
:10104000206802F0D4FB002084F8A80210BD022022
:1010500010BD000010B50446D0F8E80202F034F8E4
:10106000A069002804D00348016841F0060101602E
:1010700010BD000010ED00E02DE9F84305460078B2
:10108000354CC00754D0E0690026C00008D4E069A0
:1010900040F08050E061E069012600F0805000904F
:1010A0002E480168C90512D40168804641F4807158
:1010B0000160FFF7FDFA074605E000BFFFF7F8FA09
:1010C000C01B642823D8D8F80000C005F6D5206AD4
:1010D00010F4407021D0A98801F4407181421CD0E5
:1010E000206A1F49012220F440700A6000220A6031
:1010F0002062C00711D0FFF7DBFA074641F28838BB
:1011000008E000BFFFF7D4FAC11B414502D9032014
:10111000BDE8F883206A8007F4D5206A696820F466
:101120004070084320621EB1E06920F08050E06109
:101130002878800705D56068A96820F440400843F6
:1011400060602878C00605D56068E96820F48000F2
:10115000084360600020DBE70010024000700040A0
:10116000400442422DE9F0470F46050061D0434E4E
:10117000306800F00700B84209D2306820F007005C
:1011800038433060306800F00700B84251D1286819
:101190003B4C810712D5400703D5606840F4E060FE
:1011A00060602878000703D5606840F46050606094
:1011B0006068A96820F0F000084360602878C007E4
:1011C00028D06868012810D02168022810D089072B
:1011D00000292EDA616821F0030101436160FFF705
:1011E00067FA804641F288390DE021688903EFE70C
:1011F0008901EDE7FFF75CFAA0EB0801494502D948
:101200000320BDE8F0876068696800F00C00B0EB6F
:10121000810FEFD1306800F00700B8420BD9306879
:1012200020F0070038433060306800F00700B84213
:1012300001D00120E5E72878400705D56068E96816
:1012400020F4E060084360602878000706D56068F5
:10125000296920F4605040EAC100606000F038F86D
:101260006168084AC1F30311515CC840064908602F
:1012700006480068FFF73CFA0020C2E70020024061
:1012800000100240D4420008980000209000002086
:101290000448054900684968044AC1F30221515CC9
:1012A000C84070479800002000100240E442000847
:1012B0000448054900684968044AC1F3C221515CE9
:1012C000C84070479800002000100240E442000827
:1012D00012A185B00FC98DE80F0014A0144A006850
:1012E00004905168134801F00C03042B10D0082B14
:1012F0000ED1C1F38343C9031DF803000AD5516819
:1013000004AAC1F34041515C0A4A5043B0FBF1F0DA
:1013100005B0704708494843FAE700000203040596
:10132000060708090A0B0C0D0E0F10100102000031
:101330000010024000127A0000093D002DE9F84F2C
:10134000040070D02078C04DC00749D06868C0F351
:101350008100012807D06868C0F38100022809D104
:101360006868C00306D52868800339D560680028FE
:10137000E7D035E06068B0F5803F0BD010B1B0F534
:10138000A02F11D0286820F480302860286820F42D
:10139000802002E0286840F480302860606890B1C6
:1013A000FFF786F906460AE0286840F480202860A6
:1013B000F0E700BFFFF77CF9801B642873D828682A
:1013C0008003F7D50CE0FFF773F9064605E000BF90
:1013D000FFF76EF9801B6428F0D828688003F7D4E3
:1013E00020789A4E80074FF001094FF0000839D558
:1013F000686810F00C0F07D06868C0F381000228FD
:1014000009D16868C00306D42868800714D520690C
:10141000012808D110E02069B0B1C6F80090FFF7AC
:1014200047F9074605E00AE1FFF742F9C01B022829
:10143000C4D828688007F7D52868616920F0F800CB
:1014400040EAC10028600DE0C6F80080FFF730F9DF
:10145000074604E0FFF72CF9C01B022823D82868B0
:101460008007F7D4207800072CD57948A169D9B135
:10147000C0F80090FFF71CF9074604E0FFF718F9E1
:10148000C01B02280FD8686A8007F7D571484FF44F
:10149000FA510068B0FBF1F0009000BF0098411EC7
:1014A0000091FAD20EE080E0C0F80080FFF700F96A
:1014B000074604E0FFF7FCF8C01B022875D8686AED
:1014C0008007F7D42078400760D5E8690027C0007E
:1014D00008D4E86940F08050E861E869012700F02D
:1014E000805000905C480168C90513D401688346A8
:1014F00041F480710160FFF7DBF8824606E000BF2F
:10150000FFF7D6F8A0EB0A0064284ED8DBF80000FD
:10151000C005F5D5E06801280AD008B1052813D028
:10152000286A20F001002862286A20F0040002E006
:10153000286A40F001002862E06841F2883B98B1D7
:10154000FFF7B6F882460BE0286A40F004002862F4
:10155000EEE700BFFFF7ACF8A0EB0A0159455AD8F7
:10156000286A8007F6D50CE0FFF7A2F8824605E06E
:10157000FFF79EF8A0EB0A0159454CD8286A80076E
:10158000F6D41FB1E86920F08050E861E06988B3C3
:101590006968C1F38101022944D00228C6F860803D
:1015A00004D0FFF785F8044638E034E0FFF780F810
:1015B000074604E0FFF77CF8C01B02282BD82868F8
:1015C0008001F7D4206AB0F5803F05D16868A16832
:1015D00020F4003008436860D4E9080108436968D2
:1015E00021F4741108436860C6F86090FFF760F852
:1015F000044606E025E000BFFFF75AF8001B02286A
:1016000009D828688001F7D51BE000BFFFF750F824
:10161000001B022802D90320BDE8F88F286880014A
:10162000F4D40EE00128F7D06868226A00F4803113
:10163000914204D1616A00F47010884201D0012007
:10164000EAE70020E8E70000001002400000424204
:1016500080044242980000200070004010B5401EF7
:10166000B0F1807F01D3012010BD4FF0E024606114
:101670000F21601702F0E2FB0020A061072020612B
:10168000002010BD70B590F83C20012A26D001241E
:1016900080F83C40022280F83D2003685A689D682B
:1016A00022F070060A6832435A600D4B02689A4273
:1016B00008D0B2F1804F05D00A4B9A4202D00A4BB3
:1016C0009A4204D1496825F080031943916080F85B
:1016D0003D40002180F83C10084670BD022070BDDE
:1016E000002C0140000400400008004010B586B006
:1016F0000021009101910291039102681B4902248B
:101700001B48B2F1804F23D01A4B9A421ED18A69EE
:1017100042F004028A618A6902F0040204928A6932
:1017200042F008028A618969039401F0080104917A
:10173000C021CDE900146946FEF7C0FE0320CDE9C3
:10174000000469460C480394FEF7B8FE06B010BDCD
:101750008A6942F004028A618969039401F00401F4
:1017600004910F21CDE900146946EDE70010024015
:101770000008014000040040000C014070B5044620
:1017800090F83C000D4601280AD0012084F83C0066
:1017900042B1042A18D0082A2AD00C2A4DD139E0A7
:1017A000022070BD206800F0E5FE2068816941F0EC
:1017B000080181612068816921F00401816120684C
:1017C00081692A69114311E0206800F0FBFE20685E
:1017D000816941F4006181612068816921F480613F
:1017E0008161206881692A6941EA0221816124E0DE
:1017F000206800F013FF2068C16941F00801C16151
:101800002068C16921F00401C1612068C1692A69A9
:10181000114311E0206800F02DFF2068C16941F4F8
:101820000061C1612068C16921F48061C1612068E3
:10183000C1692A6941EA0221C161002084F83C00A3
:1018400070BD10B5040003D094F83D0010B107E05E
:10185000012010BD002084F83C00204600F01EF856
:10186000022084F83D00211D206800F03FFE012089
:1018700084F8460084F83E0084F83F0084F8400075
:1018800084F8410084F8420084F8430084F844005E
:1018900084F8450084F83D00002010BD08B50168BB
:1018A0000B48B1F1804F0BD00A4A914207D1C16970
:1018B00041F00201C161C06900F00200009008BD62
:1018C000C16941F00101C161C06900F00100F5E7A3
:1018D000001002400004004010B50446022249B145
:1018E00004290ED0082913D094F84100012816D0FD
:1018F000012010BD94F83E000128F9D184F83E2063
:101900000FE094F83F000128F2D184F83F2008E06E
:1019100094F840000128EBD184F8402001E084F8DD
:1019200041200122206800F017FE0F4920688842FC
:1019300003D1426C42F4004242642068884208D0DD
:10194000B0F1804F05D00949884202D00849884249
:1019500004D1816801F00701062903D0016841F034
:1019600001010160002010BD002C01400004004076
:101970000008004070B5040004D094F83900002538
:1019800010B106E0012070BD84F83850204600F008
:1019900023F8242084F839002068C16821F400511C
:1019A000C160204600F088FE2068016921F4904162
:1019B00001612068416921F02A0141612068C16804
:1019C00041F40051C160E563202084F8390084F8B7
:1019D0003A00002070BD000030B585B000240094AE
:1019E00001940294039400681449884224D1144855
:1019F000816941F480418161816901F480410491F0
:101A0000816941F00401816180690E4D00F004009C
:101A100004904FF400700090022001900320039086
:101A200069462846FEF74AFD2815CDE900046946B7
:101A300028460294FEF742FD05B030BD0038014053
:101A400000100240000801402DE9F843044690F8D8
:101A500039001F4616460D4620284CD1C5B1BEB1EF
:101A600094F83800012846D0012084F838004FF05F
:101A70000008C4F83C80212084F83900FEF718FEE5
:101A8000A6848146E684A068B0F5805F03D004E0B8
:101A90000120BDE8F883206928B12E465FF00005DB
:101AA00084F838800EE00026FAE78021204600F016
:101AB0005FFEA0B9AEB116F8010B21684860E08C5A
:101AC000401EE084E08C4B464FF000020097002857
:101AD000EBD14FF04001204600F04AFE30B1032028
:101AE000D7E735F8020BC0F30800E6E7202084F8BA
:101AF00039000020CDE70220CBE7FEE7F0B5002358
:101B00000A24302537261F4611E000BFB4EB107FB2
:101B100002D905EB107C01E006EB107C01F813C044
:101B200001EB430C00015B1C8CF80170DBB29342AB
:101B3000ECD3F0BD2DE9F04F85B00024324800947D
:101B4000019402940394816941F0100181618169DB
:101B500001F010010491816941F0200181618169E6
:101B600001F020010491816941F0040181618169E2
:101B700001F004010491816941F0080181618069EB
:101B8000DFF8889000F008004FF400550490002220
:101B900029464846FEF787FDDFF874B04FF6E44764
:101BA000002239465846FEF77EFDDFF868A04FF464
:101BB0008078002241465046FEF775FD00950226CA
:101BC00001250396CDE9015469464846FEF776FCA7
:101BD00000970396CDE9015469465846FEF76EFC1E
:101BE000CDF800800396CDE9015469465046FEF7D2
:101BF00065FC1020CDE90004694658460294FEF7C2
:101C00005DFC05B0BDE8F08F0010024000100140FF
:101C1000000C01400008014010B58AB00024079470
:101C20001C2168460894FEF796FA21484FF080413F
:101C3000C0E900144FF6FF71C0E9024104618461FC
:101C4000FFF7FFFD08B1FEF726FC079407A9184827
:101C50000894FFF717FD08B1FEF71DFC6020CDE9E1
:101C6000000402940022694611480494FFF786FD9F
:101C700008B1FEF710FC042269460D48FFF77EFD0F
:101C800008B1FEF708FC082269460948FFF776FD0F
:101C900008B1FEF700FC0C2269460548FFF76EFD0F
:101CA00008B1FEF7F8FB0248FFF720FD0AB010BDAF
:101CB000B401002010B58AB0002407941C216846A6
:101CC0000894FEF748FA23482149016041F61F4174
:101CD000C0E9011440F2E731C0E903148461FFF761
:101CE000B0FD08B1FEF7D7FB079407A9194808947F
:101CF000FFF7C8FC08B1FEF7CEFB6020CDE9000479
:101D000002940022694613480494FFF737FD08B196
:101D1000FEF7C1FB042269460E48FFF72FFD08B10C
:101D2000FEF7B9FB082269460A48FFF727FD08B10C
:101D3000FEF7B1FB0C2269460648FFF71FFD08B10C
:101D4000FEF7A9FB0348FFF7D1FC0AB010BD000065
:101D500000040040FC0100200C4810B50A49016055
:101D60004FF4E1314160002181600C22C160C0E983
:101D700004128161C161FFF7FDFD002803D0BDE8B9
:101D80001040FEF788BB10BD00380140440200201F
:101D900010B500220F49104800F0D8FF08B1FEF737
:101DA0007AFB0E490C4801F0B5F908B1FEF773FB58
:101DB0000B49094800F0F2FD08B1FEF76CFB06483C
:101DC00001F0FEF9002803D0BDE81040FEF763BB28
:101DD00010BD00002C00002090020020780100209F
:101DE0007C000020FEE770472DE9F84F044640F6DE
:101DF0008F7B48F60F7A4FF002094FF4806868E154
:101E0000B0F8441011F00F0638D030F826703904BD
:101E10007ED530F8261001EA0B0141F0800120F850
:101E2000261006EB860004EBC00595F8740105F555
:101E3000B47500286DD0E87802286BD02A78216824
:101E400031F8220048F68F73184048F2C003184357
:101E500021F822002978206830F82120B0F850308D
:101E600052047DD509EBC1015A1808EB4201415AD1
:101E70008905890D009174D02A89D2E0C9062DD434
:101E8000018801EA0A0141F400410180206804F15F
:101E90002805B0F850302A7809EBC2015A1808EB2F
:101EA0004201405AC0F309006064E16B0844E063FA
:101EB00000212046FEF7B9FC94F8240000289ED0AB
:101EC000A86900289BD194F8240040F08001206884
:101ED000A0F84C10002084F82400FAE0018804F5F2
:101EE000B4750A0521D5B0F850302A78062101EBE7
:101EF000C2015A1808EB4201405A04F52C71C0F394
:101F00000903EB61EA88206801F056FF216802E0CE
:101F1000A2E062E072E0088800EA0B0040F0800076
:101F200008802046FFF775F8D3E00904D5D501886D
:101F300001EA0B0141F0800101802068B0F85020D7
:101F40002B78062101EBC3010A4408EB4201405AF9
:101F500083059B0DEB6110D0696971B1EA8801E0DE
:101F600053E051E0206801F027FFE96968690844FF
:101F7000686100212046FEF761FC2068B0F850102F
:101F80000844296900F20C4051B13E2910D84A0892
:101F9000C90700D0521C4FF6FF7101EA82210FE001
:101FA000018821F4F8410180018841F4004107E0F3
:101FB0004A09C90600D1521E4FF4004141EA82216C
:101FC0000180206801884BF68F72114081F44051E6
:101FD00048F28002114301807BE02068B0F8501085
:101FE0002A78062303EBC2020A4408EB4201415A55
:101FF0008905890D009118D0EA8812E03A462946F1
:102000002046FEF779FC00900FE0062202EBC101AA
:102010005A1808EB4201415A8905890D009104D0F4
:102020006A896969009B01F0C7FEE9690098084464
:10203000E8616969009808446861A86918B129696C
:102040000098814204D929782046FEF7F7FB03E087
:102050002946206801F036FC38063AD5226806EB9E
:10206000860004EBC00132F8260000EA0A0040F4C2
:10207000004022F8260091F82B002831022801D1D7
:10208000F80522D42268B2F850300D7809EBC5006B
:10209000034408EB4300105A8A69C0F309008242E6
:1020A0000CD9121A8A610BD04A6902444A61CA6982
:1020B0001044C861206801F005FC0AE00020886136
:1020C000E9B22046FEF7B1FB03E03A462046FEF7B0
:1020D00086FC2068B0F8441009043FF591AE00205A
:1020E000BDE8F88F0149085C7047000084020020B9
:1020F0000020044902460A54401CC0B20928FAD301
:102100007047000084020020F8B506460120ADF8B3
:1021100000001F4C00216170ADF800001D4D4FF60E
:10212000FF772FE0BDF80000304201D0012200E02F
:10213000002220212846FEF7B6FA012280212846F7
:10214000FEF7B1FA0A2001F0D1FF002280212846D3
:10215000FEF7A9FA0A2001F0C9FF012280212846D2
:10216000FEF7A1FA10212846FEF798FA20B1607810
:10217000BDF8001008436070BDF8000007EA400099
:10218000ADF80000BDF80000FF28CBD9F8BD000075
:1021900084020020000C014070B5FFF7A9FF00F099
:1021A0007FF80B480B4BB0F803100A481B1D418009
:1021B0000020012413F8105000F101006D1E04FAF4
:1021C00005F20A42C0B202D01028F3D3002070BD3D
:1021D000840200200000002010B5174C002240218E
:1021E0002046FEF760FA102001F080FF0120FFF783
:1021F0008BFF4320FFF788FF0020FFF785FF0120BA
:10220000FFF782FF0020FFF77FFF0020FFF77CFF32
:102210000020FFF779FF0020FFF776FF0020FFF78F
:1022200073FF012240212046FEF73DFABDE8104031
:10223000102001F05BBF0000000C014010B5174CEE
:10224000002240212046FEF72EFA102001F04EFF1A
:102250000120FFF759FF4320FFF756FF0020FFF74B
:1022600053FF0020FFF750FF5A20FFF74DFF5A2081
:10227000FFF74AFF5A20FFF747FF5A20FFF744FFB6
:102280005A20FFF741FF012240212046FEF70BFABA
:10229000BDE81040102001F029BF0000000C0140F3
:1022A0002DE9FC4100208DF800000126ADF8046006
:1022B0002A4C024640212046FEF7F5F9284D2878A1
:1022C000FFF722FF6878FFF71FFF02208DF800005C
:1022D000244D4FF6FF7734E0ADF8046025E001228D
:1022E00080212046FEF7DFF9002280212046FEF7FC
:1022F000DAF90A2001F0FAFE012280212046FEF7D9
:10230000D2F910212046FEF7C9F940B19DF800002E
:10231000BDF80410285C08439DF800106854BDF80F
:10232000040007EA4000ADF80400BDF80400FF28EF
:10233000D5D90A2001F0DAFE9DF80000401C8DF886
:1023400000009DF800000928C6D302B02046BDE871
:10235000F04101224021FEF7A6B90000000C014027
:10236000000000208402002010B500F00FF800F0FB
:102370000DF800F00BF8FFF72FFF00F02DF800F03C
:1023800059F8BDE81040FFF759BF000010B5114CD7
:10239000002240212046FEF786F9102001F0A6FE1B
:1023A0000120FFF7B1FE4220FFF7AEFE0020FFF74D
:1023B000ABFE0020FFF7A8FE0020FFF7A5FE0122DC
:1023C00040212046FEF76FF9BDE81040102001F0D3
:1023D0008DBE0000000C014010B5154C00224021BC
:1023E0002046FEF760F90120FFF78EFE4420FFF73C
:1023F0008BFE0020FFF788FE0120FFF785FEEE2010
:10240000FFF782FE0020FFF77FFE0020FFF77CFE33
:102410000020FFF779FE0020FFF776FE0122402121
:102420002046FEF740F9BDE81040102001F05EBEE6
:10243000000C014010B5114C002240212046FEF74F
:1024400032F9102001F052FE0120FFF75DFE4D2011
:10245000FFF75AFE0020FFF757FE0020FFF754FE5B
:102460000120FFF751FE012240212046FEF71BF913
:10247000BDE81040102001F039BE0000000C014002
:1024800070477047FEF71AB930B593B028216846F7
:10249000FDF761FE14210AA8FDF75DFE002401206E
:1024A0000F9410941194010412948DE81300049079
:1024B0004FF4E010CDE90810022507956846FEF7B5
:1024C0003DFF0F20CDE90A056802CDE90C4002214D
:1024D0000AA80E94FEF746FE10200F9012940FA843
:1024E000FEF7CAFD13B030BD70470000F0B50268BA
:1024F000164B174C174D4FF08047984205D0B84205
:1025000003D0A04201D0A84203D122F070064A684D
:102510003243984205D0B84203D0A04201D0A8422D
:1025200003D122F44074CA6822434C6922F080022D
:10253000224302608A68C2620A688262984201D1BC
:102540000969016301214161F0BD0000002C0140D7
:10255000000400400008004010B501F01F030121F5
:10256000046A99408C430462016A9A4011430162F3
:1025700010BD000030B5026A22F001020262026A58
:102580004368846924F073050C682C4322F002052B
:102590008A682A430A4DA8420BD122F00805CA686E
:1025A00023F440732A434D6922F004021D438B69D2
:1025B0002B434360846149684163026230BD00007F
:1025C000002C014030B5026A22F010020262026A59
:1025D000436884690D6824F4E64444EA05248D6860
:1025E00022F0200242EA05120B4DA8420ED1CD681E
:1025F00022F0800242EA05124D6923F4406343EA67
:1026000085038D6922F0400243EA850343608461BB
:1026100049688163026230BD002C014030B5026A16
:1026200022F480720262036A4268C46923F4007370
:1026300024F073050C682C438D6843EA05230C4D88
:10264000A8420ED1CD6823F4006343EA05234D6907
:1026500022F4405242EA05128D6923F4806342EA73
:1026600005124260C4614968C163036230BD000065
:10267000002C014030B5026A22F480520262046AE2
:102680004268C3690D6823F4E64343EA05238D6875
:1026900024F4005444EA0534064DA84204D14D699F
:1026A00022F4804242EA85124260C36149680164B3
:1026B000046230BD002C014070B504460068016919
:1026C000E26821F44051114301612169A068084387
:1026D000616908432168CA6841F20C639A43024366
:1026E000CA6020684169A26921F4407111434161C7
:1026F0001E492068884202D1FEF7DAFD01E0FEF7AC
:10270000C7FD00EBC00101EB00126068642180008E
:10271000B2FBF0F3B3FBF1F36FF018067343B2FBB7
:10272000F0F5B2FBF0F605EB8305322303EB05155C
:10273000B5FBF1F5B6FBF1F605F0F00505EB061576
:10274000B2FBF0F6B2FBF0F0B0FBF1F06FF0180264
:10275000504306EB800003EB0010B0FBF1F0216862
:1027600000F00F002844886070BD00000038014070
:102770002DE9F041984617460E460446069D1DE099
:10278000681C1BD02DB1FDF793FFA0EB0800A842F9
:1027900014D92068C16821F4D071C16020684169F2
:1027A00021F001014161202084F8390084F83A00C9
:1027B000002084F838000320BDE8F081206800681C
:1027C00036EA000004D00020B842D9D00020F3E758
:1027D0000120F9E72DE9F041D0F8C032D0F8B82255
:1027E000CAB101EB810500EB85040026E7693FB122
:1027F00003EBC5039B6BB7FBF3F503FB157323B129
:10280000C2F814620020BDE8F08100231A46E66198
:1028100000F063FCF6E70220F5E770B50546D0F856
:10282000B84200F05EFBC4F80C02D5F8B80248B11B
:10283000D5F8BC12D4F80402CA6804F503719047B5
:10284000002070BD022070BD70B5044600268121B5
:1028500000F09AFA002501212046E56200F094FA82
:1028600082212046C4F86C5100F08EFA2564D4F819
:10287000B80248B1D4F8BC0204F52E744068804711
:10288000206800F0FAFD2560304670BD10B5D0E933
:10289000AE4159B194F80002FF2807D08B6894F834
:1028A000012221469847FF2084F80002002010BD35
:1028B0000A21018000487047A000002043210180C8
:1028C00000487047F0000020432101800048704715
:1028D000AC000020432101800048704734010020F3
:1028E0002DE9F04104460026007C4FF400770125D5
:1028F00090B3402302228121204600F047FB402371
:10290000E56202220121204600F040FB0823032259
:1029100082212046C4F86C5100F038FB4FF4077058
:10292000256400F0ABFDC4F8B802F8B10546D4F850
:10293000BC02006880470020C5F81402C5F81802E0
:10294000207CD5F8042298B140230121204600F0D4
:1029500029FB3046BDE8F081FFE73B46022281219A
:10296000204600F013FB3B46E562CAE70126F0E78C
:102970003B46EAE710B5D0F8B81269B1027C002AEC
:10298000D1F8042205D04023012100F00BFB0020E8
:1029900010BD4FF40073F7E7022010BD024602207D
:1029A000002902D00020C2F8BC127047D0F8B8024B
:1029B000C0F8041200207047D0F8B802C0F8102206
:1029C000C0F80812002070472DE9FC410546D0F8F8
:1029D000B87200208DF80000ADF8040006460878B3
:1029E0000C4610F0600121D020293BD1E288AAB129
:1029F0000006607807D5D5F8BC128B683946984731
:102A0000E288394626E087F80002A07987F80102BB
:102A1000E2883946284600F04FF828E0D5F8BC1285
:102A2000607800228B682146984720E0607820B1CA
:102A30000A2809D00B2815D110E095F89C0203282C
:102A400010D1022201A905E095F89C02032809D1C2
:102A500001226946284600F049F808E095F89C02F2
:102A6000032804D02146284600F01BF802263046F1
:102A7000BDE8FC8110B5D0F8B42252689047002020
:102A800010BD134610B50A46002100F08BFA002055
:102A900010BD134610B50A46002100F01EFB0020B1
:102AA00010BD10B50446802100F0FCFA2046BDE8B8
:102AB0001040002100F0F6BA10B50323C0F85C21E5
:102AC000C0F89432C0F8602113460A46002100F095
:102AD00069FA002010BD10B505210023C0F894123A
:102AE0001A46194600F05EFA002010BD10B5022308
:102AF000C261C0F89432026213460A46002100F017
:102B0000ECFA002010BD10B504210023C0F8941287
:102B10001A46194600F0E1FA002010BD10B50A4629
:102B2000024903A000F0E2F8004810BD540500205F
:102B300043444320436F6E6669670000122008809B
:102B4000004870474C00002010B50A46024903A017
:102B500000F0CCF8004810BD540500204344432049
:102B6000496E746572666163650000000420088028
:102B7000004870474800002010B50A46024903A0EB
:102B800000F0B4F8004810BD5405002053544D69BE
:102B900063726F656C656374726F6E696373000056
:102BA00010B50A46024903A000F0A0F8004810BD85
:102BB0005405002053544D333220566972747561A8
:102BC0006C20436F6D506F727400000010B51A20B6
:102BD00008800A480168001D0468001D0068081884
:102BE00009D008220649FEF789FF05490422103161
:102BF0002046FEF783FF0248801E10BDE8F7FF1F46
:102C000062000020F8B504460020ADF800004888B6
:102C10000D46010A082948D2DFE801F047040917E8
:102C200047473C45D4F8B012207C0A6819E0207C64
:102C300002260028D4F8B40205D0C16A6846884745
:102C4000014646703EE0816AF8E7C0B206282CD201
:102C5000DFE800F0030A1014181CD4F8B002426830
:102C600005E0694690471CE0D4F8B0028268E2B102
:102C7000207CF6E7D4F8B002C268F8E7D4F8B002D6
:102C80000269F4E7D4F8B0024269F0E7D4F8B00280
:102C90008269ECE7207C40B9D4F8B402416B684605
:102CA000884701460EE0207C20B129462046FFF7E8
:102CB000F8FEF8BDD4F8B402016B684688470146B7
:102CC00007204870BDF8000048B1EA8852B182423E
:102CD00000D90246ADF800202046FFF707FFE8883C
:102CE0000028E6D12046FFF70EFFF8BD70B500239F
:102CF00000281ED00446002502E06D1CEDB2641CC5
:102D00002678002EF9D1022404EB450414801278B1
:102D1000CA545B1C0322CA5400245B1C06E0CA543C
:102D20005B1CDAB28C54521CD3B2401C0278002ACD
:102D3000F5D170BD01004FF0000004D0012901D091
:102D4000022901D0022070470120704710B580B1E0
:102D5000D0F8B43213B10023C0F8B43209B1C0F8CE
:102D6000B012012180F89C12027000F0BFF8002020
:102D700010BD022010BD10B5D0F8C002FDF78EFDC9
:102D8000BDE81040FFF7D6BF10B5D0F8C002FDF780
:102D90005FFDBDE81040FFF7CDBF2DE9F0411746BC
:102DA000044651B1D4F8B40242691AB194F89C02B5
:102DB000032851D00220BDE8F081D4F894320025D8
:102DC00004F11400022B03D0042B3AD0C3B33CE02F
:102DD000D0E903639E4207D9F11AC1608AB239462D
:102DE0002046FFF756FE12E08068B0FBF3F103FBCC
:102DF000110199B9984211D3D4F8981288420DD292
:102E0000002211462046FFF744FEC4F898520023E2
:102E10001A461946204600F0C5F816E0D4F8B40268
:102E2000C16829B194F89C02032801D12046884743
:102E30008021204600F036F92046FFF74CFE04E0E2
:102E4000FFE78021204600F02DF994F8A002012828
:102E500004D184F8A05201E0204690470020AAE760
:102E600070B51546044649B1D4F8B40282691AB166
:102E700094F89C02032830D0022070BDD4F894123C
:102E800004F5AA70032902D005291ED027E0D0E955
:102E900003218A420BD9531AC3600846834200D3E8
:102EA00003469AB229462046FFF7EBFD17E0D4F817
:102EB000B402016929B194F89C02032801D120468B
:102EC00088472046FFF71FFE09E000200146C4F8AE
:102ED0009402204600F0E6F801E0204690470020EA
:102EE00070BDD0F8C002FDF78ABE000010B50446E0
:102EF0001C481D49C0F8E842C4F8C002016008211E
:102F000041600221816000218161C1610162FDF7A0
:102F1000C5FF08B1FDF7BFFA0022D4F8C00218239C
:102F2000114604F53074FDF761FC5823002280211E
:102F30002068FDF75BFCC023002281212068FDF79B
:102F400055FC4FF48873002201212068FDF74EFCE8
:102F50004FF48073002282212068FDF747FC002097
:102F600010BD000044110020005C00400A0601F082
:102F70007F01D0F8C00201EB810100EBC10002D556
:102F800090F82A00704790F86A01704710B51C4607
:102F90001346D0F8C0022246FDF73AFEBDE81040C5
:102FA000FFF7C8BE10B5D0F8C002FDF761FEBDE85E
:102FB0001040FFF7BFBE70B5002204464023114603
:102FC000FFF7E4FF40260125C4F864613346002280
:102FD00080212046C4F85851FFF7D8FF6662A561EA
:102FE00084F89C520020C4F894026060C4F8A402E3
:102FF000D4F8B80228B1D4F8B402002142682046BF
:103000009047002070BD90F89C12042903D190F8DD
:103010009D1280F89C120020704710B590F89C1209
:10302000032904D1D0F8B412C96901B1884700203E
:1030300010BD01740020704710B5D0F8C002FDF734
:10304000D4FFBDE81040FFF775BE70B5044600F52B
:103050002A70054600F04AF80120C4F89402B4F83A
:10306000AE02C4F8980294F8A80210F01F010AD02A
:1030700001290DD0022910D000F08001204600F077
:1030800011F8002070BD2946204600F09EF8F8E7B0
:103090002946204600F0CAF9F3E72946204600F009
:1030A0001DF9EEE710B5D0F8C002FDF7FAFDBDE856
:1030B0001040FFF73FBE10B5D0F8C002FDF7B0FFDB
:1030C000BDE81040FFF736BE90F89C1280F89D12C4
:1030D000042180F89C120020704710B5D0F8C0027F
:1030E000FDF718FEBDE81040FFF724BE0A78027015
:1030F0004A7842708A78CB7802EB032242800A79C0
:103100004B7902EB032282808A79C97902EB012193
:10311000C18070470246002011B1C2F8B412704756
:103120000220704710B5D0F8B42202241AB11268F8
:10313000904700B90024204610BD000070B50E462F
:103140001E4D897804462970012931D894F89C02D3
:1031500002280BD003280FD031462046FFF7A1FCF0
:1031600029782046BDE87040FFF784BCD9B1032020
:10317000616084F89C0209E071B16068884212D0F5
:10318000C1B22046FFF776FC297861602046FFF740
:10319000C9FF02280CD006E0022084F89C022046D9
:1031A0006160FFF767FC2046BDE87040FFF7ABBCED
:1031B00031462046BDE87040FFF773BC9C000020FC
:1031C00010B5FFF778FF002010BD2DE9F0410A7817
:1031D000002612F0600208D0202A01D0402A70D1C7
:1031E000D0F8B422926890476DE04B780022012518
:1031F0000A2B66D2DFE803F0405D65576508056578
:103200002C29FFF7FFFC5EE004468888D8B9C888FF
:10321000C8B94888802816D200F07F0794F89C022D
:10322000032810D084F89E7239462046FFF704FF29
:103230002046FFF768FC1FB1022084F89C0242E0A0
:1032400084F89C523FE020463BE0FFF777FF3AE0EE
:10325000CB88012B35D190F89C32012B04D0022B66
:1032600002D0032B2DD104E08260012200F108017D
:1032700016E00122011D13E090F89C22012A03D0E0
:10328000022A01D0032A1CD1CA88022A19D1C5609A
:10329000D0F8A41209B10321C160022200F10C018F
:1032A000FFF724FC0FE0498801290CD1C0F8A45293
:1032B00011E090F89C32012B08D0022B06D0032B92
:1032C00004D0FFF7EEFB3046BDE8F08149880129C4
:1032D000F9D1C0F8A422FFF716FCF4E72DE9F0417C
:1032E0000A46044610780027097910F060030AD0D6
:1032F000202B01D0402B50D1D4F8B4021146836862
:10330000204698478FE0C0F34110012806D050783E
:10331000D0B301282AD003283FD107E0D4F8B40263
:10332000114683682046BDE8F041184794F89C0296
:10333000022802D0032872D10AE071B380296ED02E
:103340002046FFF7AFFE80212046FFF7ABFE6AE084
:10335000508838B931B1802904D0D08810B92046BE
:10336000FFF7A0FE2046FFF7CEFB5CE094F89C023E
:103370000228E2D0032852D1508898BB4806F1D0E9
:103380002046FFF7F8FCEDE7FFE794F89C020026E3
:10339000022803D0032842D112E040E009B180297D
:1033A0003DD1080601F07F0000EB800004EB8001B6
:1033B00001D5143101E001F5AA7102220E602AE064
:1033C000080601F00F0000EB800004EB80000AD536
:1033D000806920B301F07F0000EB800004EB8005E2
:1033E00014350BE01FE0D0F85801C0B101F07F00A8
:1033F00000EB800004EB800505F5AA7541B180293A
:1034000006D02046FFF7B2FD10B10120286000E091
:103410002E60022229462046FFF768FB03E0114692
:103420002046FFF73EFB3846BDE8F08170B5054603
:1034300008780C4610F0600003D0202801D0402806
:1034400016D195F89C02012803D0022801D0032848
:103450000ED1207901280BD8D5F8B402826828460D
:103460009047E188014306D12846FFF74CFB02E074
:103470002846FFF716FB002070BD704700487047D4
:10348000240F00202DE9F0470C78002630F8243076
:1034900048F68F121340CA78002A7DD0012A7CD0CA
:1034A000022A02D0032A7FD0012648F28002134369
:1034B00020F824300D7830F8254048F68F731C40F2
:1034C0002C43144320F825400D7B48F2C00C48F6ED
:1034D000BF744CF280074BF68F79EDB391F8008002
:1034E000C24630F8285048F280181D4045EA0805C9
:1034F00020F82A50B0F8505091F80080054405EBB0
:103500000815B1F8088028F00108A5F80084B0F883
:10351000505091F80080054405EB0815B1F80A8079
:1035200028F00108A5F808844D78002D0D7830F8B2
:1035300025804FEA48487DD0B8F1000F07DA30F80F
:10354000258008EA030848EA070820F825800F7854
:1035500030F827506D0600E02CE006D530F82750F3
:103560001D4045EA0C0520F82750CB780D78012B3B
:1035700030F8253003EA040301D083F0200313431D
:1035800020F825300B7830F8231001EA09011143A7
:1035900020F82310304602E003E008E004E0BDE834
:1035A000F08743F4007380E743F4C0637DE743F49E
:1035B00080637AE74D782DB3B0F850500F7805440A
:1035C00005EB0715CF8827F00107A5F800740F78E1
:1035D00030F827506D0606D530F827501D4045EAD3
:1035E0000C0520F82750CB78012B06D00B7830F84B
:1035F0002310214081F02001C9E70B7830F8231017
:103600002140C4E7B0F850400D78044404EB0514A1
:10361000CD8825F00105A4F80854B0F850400D7885
:10362000044404EB05140D6904F20C4475B13E2DFD
:1036300014D800E030E04FEA550CED0701D00CF152
:10364000010C4FF6FF7505EA8C2511E0258825F45D
:10365000F8452580258845F4004509E04FEA551CCA
:10366000ED0601D1ACF1010C4FF4004545EA8C2583
:1036700025800D7830F82540640405D530F82540C4
:103680001C403C4320F825400B7830F8231001EA19
:10369000090181F440517AE7B8F1000F07DA30F8F8
:1036A000258008EA030848EA070820F825800F78F3
:1036B00030F827506D0606D530F827501D4045EAF2
:1036C0000C0520F827500D7830F8253003EA09035F
:1036D00083F44053134320F825308EE700207047D1
:1036E0002DE9F04391F80C804F780A7848F6BF7CBA
:1036F0004BF68F7948F2800348F2C0054CF2800601
:1037000048F68F74B8F1000F28D0002F30F82270DF
:103710004FEA474748D0002F05DA30F8227027409B
:10372000374320F822700A7830F822707F0605D5DA
:1037300030F8227027402F4320F822700D7830F89F
:1037400025202240324320F825200C7830F8242010
:1037500002EA0C021A4320F824201AE07FB130F864
:103760002260760605D530F8226026402E4320F8E8
:1037700022600A7830F8221001EA0C010EE030F8DD
:1037800022506D0405D530F822502540354320F8ED
:1037900022500A7830F8221001EA0901194320F872
:1037A00022100020BDE8F083002F05DA30F82270E7
:1037B0002740374320F822700A7830F822607606D6
:1037C00005D530F8226026402E4320F822600E787E
:1037D00030F8262022402A4320F826200C7830F8A2
:1037E000242002EA09021A4320F82420C1E700201D
:1037F000704700207047012120F8401F0021018000
:10380000818001820846704730F8401F21F43F4113
:103810000180002070470020704730B50A7BB2BBA2
:103820004A7848F68F7548F28004C2B10B7830F8B8
:103830002320520607D530F823202A4048F2C0053D
:103840002A4320F82320CA78012A20D00A7830F8A9
:10385000221048F6BF73194081F0200114E00A7865
:1038600030F822305B0407D530F822302B404CF280
:1038700080052B4320F822300A7830F822104BF6CE
:103880008F73194081F44051214320F82210002009
:1038900030BD10B54A780978002A48F2800330F824
:1038A000212005D048F6BF74224082F0100204E0C7
:1038B0004BF68F74224082F480521A4320F8212064
:1038C000002010BD2DE9F04F0D464A78097B0446D3
:1038D0004FF0000948F68F7A48F2800B4FF6FF77D9
:1038E0004FF40048012A09D000297DD0E878022849
:1038F0007BD001287AD00120BDE8F08FAE6928691D
:10390000864200D9064681B1E97802291CD0287880
:1039100034F820104906B4F85010214401EB00108F
:1039200070D5A0F80C646A8928E1B3B2EA88204611
:10393000696900F05FFAB4F850002978204400EB80
:103940000110A0F8046435E1296A814276D929780A
:1039500034F8210048F2801200EA0A00104324F8EB
:103960002100286A801B2862287834F82010490634
:10397000697876D511B1012921D027E0B4F850102B
:10398000214401EB001000F20C404EB13E2E0FD846
:103990007108F20700D0491C07EA8121018015E077
:1039A000018821F4F8410180018841F40041F5E7E4
:1039B0007109F20600D1491E48EA8121EEE7B4F808
:1039C0005020111901EB0010A0F80C646A89B3B201
:1039D0002046696900F00EFA686930446861296917
:1039E000286A884206D902E0EDE00DE178E1801B0B
:1039F000286202E00646C5F82090687818B10128D0
:103A000024D02BE0B7E0B4F850002978204400EB34
:103A1000011000F204404EB13E2E10D87108F2079A
:103A200000D0491C07EA8121018017E0018821F4B8
:103A3000F8410180018841F40041F5E786E0710911
:103A4000F20600D1491E48EA8121EDE7B4F85000A2
:103A50002978204400EB0110A0F804642A896FE063
:103A6000FFE711B1012921D027E0B4F8501021441B
:103A700001EB001000F204404EB13E2E0FD8710849
:103A8000F20700D0491C07EA8121018015E0018876
:103A900021F4F8410180018841F40041F5E7710902
:103AA000F20600D1491E48EA8121EEE7B4F8501031
:103AB000214401EB0010A0F804642A89B3B2204627
:103AC000696900F097F96869304468612969286A72
:103AD000884202D9801B286202E00646C5F8209081
:103AE000687810B1012822D029E0B4F85000297874
:103AF000204400EB011000F20C404EB13E2E0FD8D6
:103B00007108F20700D0491C07EA8121018016E004
:103B1000018821F4F8410180018841F40041F5E772
:103B20007109F20600D1491E48EA8121EEE7B4F896
:103B300050100819297800EB0110A0F80C646A896C
:103B4000B3B22046696900F055F933E02A7834F8B9
:103B5000220048F68F63184040EA0B0024F8220048
:103B6000B4F850002A78204400EB02108BB2A0F881
:103B700004342A89E5E7A0F804642A89B3B2204610
:103B8000696900F037F9687810B1012808D011E0B0
:103B9000297834F8210048F2C00200EA0A0006E061
:103BA000297834F821004CF2800200EA0A00104320
:103BB00024F82100297834F8210048F6BF7210401B
:103BC00080F03000DFE0A9692869814202D9091A32
:103BD000A961B6E00846C5F81890B2E0088820F45C
:103BE000F8400880088840F400400BE03E2876D872
:103BF0004208C00700D0521C07EA822002E000BF42
:103C000048EA82200880B6E092B9B4F850002978DA
:103C1000204400EB0110296900F2044069B13E29FB
:103C200013D84A08C90700D0521C07EA8221018034
:103C3000687888B1012832D03AE0018821F4F8414F
:103C40000180018841F40041F1E74A09C90600D129
:103C5000521E48EA8221EAE7B4F85000297820444D
:103C600000EB0110296900F20C4049B13E290FD840
:103C70004A08C90700D0521C07EA8221018017E0D8
:103C8000018821F4F8410180018841F40041F5E701
:103C90004A09C90600D1521E48EA8221EEE7B4F86B
:103CA00050100819297800EB0110298AA0F80C148B
:103CB000E869B0B3297834F82100420401D54206FE
:103CC00003D444F24002104255D134F8210048F2A6
:103CD000C00200EA0A00104324F821004BE03CE057
:103CE000A9692869814202D9091AA96102E0084636
:103CF000C5F818908AB9B4F850102A78214401EB1D
:103D0000021101F2044168B13E2813D84208C307EA
:103D100000D0521C07EA82220A80697889B1012901
:103D200021D028E00A8822F4F8420A800A8842F466
:103D30000042F1E74209C30600D1521E48EA82223E
:103D4000EAE7B4F850102A78214401EB021101F29D
:103D50000C4100287FF44AAF40E74209C0067FF4D7
:103D60004FAF521E4CE7B4F8502011192A7801EBDE
:103D70000211A1F80C04297834F821004BF68F7257
:103D8000104080F4405040EA0B0024F8210000204D
:103D9000B2E50021A0F844104FF43F41A0F84010D4
:103DA000002070470148FCF7CFBF000044110020FD
:103DB000B0F844007047000010B500EB42005C080A
:103DC00000F5806009D000BF30F8042B01F8012B0A
:103DD000120A01F8012B641EF6D1DA0701D000881F
:103DE000087010BD0020704711B98021A0F84C1058
:103DF0000020704710B55B1C00EB42005B0800F52B
:103E0000806009D011F8012B11F8014B42EA04221D
:103E100020F8042B5B1EF5D110BDFEE70FB4054B57
:103E200010B503A9044A029800F028F810BC5DF808
:103E300014FB000005410008B00100200907090E2D
:103E4000002804DB00F1E02080F80014704700F047
:103E50000F0000F1E02080F8141D704702E008C850
:103E6000121F08C1002AFAD170477047002001E0F4
:103E700001C1121F002AFBD1704700002DE9FF4F3E
:103E800089B09B460446002506E025280BD05A46FB
:103E90000B999047641C6D1C20780028F5D10DB05B
:103EA0002846BDE8F08F0027B8460122474900E0C8
:103EB000074314F8013F203B02FA03F00842F7D110
:103EC00020782E2819D114F8010F47F004072A286A
:103ED0000ED06FF02F022078A0F1300109290CD804
:103EE00008EB880102EB410100EB0108641CF2E7DA
:103EF0000A98641C50F8048B0A9020780028CED0D1
:103F0000642808D0692806D075281ED05A460B9917
:103F100090476D1C58E00A994FF00A0901C90A91AF
:103F2000002802DA40422D2102E0390504D52B2178
:103F30008DF82010012103E0F90704D02021F7E7D4
:103F40008A4608AE0DE00021FAE70A994FF00A0907
:103F500001C90A91F7E74946FCF7EEF9303106F856
:103F6000011D0028F7D1ADEB060000F1200978070C
:103F700001D44FF00108C84502DDA8EB090000E0BC
:103F800000208046002706E008A85A46C05D0B992D
:103F900090476D1C7F1C5745F6DB04E030205A46E5
:103FA0000B9990476D1CB8F10001A8F10108F5DCF0
:103FB00005E016F8010B5A460B9990476D1CB9F1B4
:103FC0000001A9F10109F4DC641C65E7092801007E
:103FD0002DE9F04186B0FEF7DFF830490870052082
:103FE000FEF780F82E4908700720FEF77BF82D4D6C
:103FF00028700620FEF776F82B4908700820FEF797
:1040000071F82A4C20702878FCF778F9294FDFF8EE
:10401000A880274E3B4642460021009600F0B2F8A9
:10402000FCF771F905462078FCF768F93B464246F3
:104030000021009600F0A6F8FCF765F90646A919DC
:1040400048420190701B0290A81B002401AFCDE9EB
:10405000030100BF57F82410204600F0B1F8641C9B
:10406000E4B2042CF6D3294614A0FFF7D7FE31465C
:1040700014A0FFF7D3FE15A00199FFF7CFFE15A0FE
:104080000299FFF7CBFE15A00399FFF7C7FE15A015
:104090000499FFF7C3FE06B0BDE8F08124000020BC
:1040A00025000020270000202600002028000020F6
:1040B00000007A4400007AC400007F43783A256407
:1040C0000D0A0000793A25640D0A000073313A2583
:1040D000640D0A0073323A25640D0A0073333A25E1
:1040E000640D0A0073343A25640D0A0008B500EB2C
:1040F000C00020F06040009000BF0098411E009179
:10410000FAD208BD13B54FF6FF7301226946024883
:10411000FDF79AFC00981CBD44020020FCF7D6FA7B
:10412000FEF7B2F9FDF706FDFDF776FDFDF7C2FDDE
:10413000FDF72EFEFDF710FEFEF716F900210E48E2
:10414000FDF7CAFB04210C48FDF7C6FB08210A480D
:10415000FDF7C2FB0C210848FDF7BEFB4FF47A7453
:10416000FFF736FF0A23012204490548FDF76CFCDE
:104170002046FCF791F9F3E7FC0100202500002020
:10418000440200202DE9F041064698460D461046AF
:10419000069FFCF73DF8044641463846FCF738F8E0
:1041A0002146FCF76DF8044629463046FCF730F806
:1041B0002146FCF733F84146BDE8F041FBF7D6BF96
:1041C0002DE9F0410C4601003F48404EC4F1000586
:1041D00015D001292BD0022948D0032925D18715D4
:1041E000DFF8EC804FF40041002C5EDD0122FCF78B
:1041F0005AFA002239464046FCF755FA60E04FF47F
:104200008068002C02DD0122042136E00022042116
:104210000746FCF748FA012241463846FCF743FAC4
:10422000002C00DA2C4630684463BDE8F0814FF47E
:1042300000614FF48058002C09DD01220546FCF78F
:1042400032FA002241462846FCF72DFA0BE0002204
:104250000746FCF728FA012241463846FCF723FAC4
:10426000002C00DA2C4630688463DEE74FF40051FE
:104270004FF48048002C09DD01220546FCF713FAB3
:10428000002241462846FCF70EFACCE700220746FA
:10429000FCF709FA012241463846FCF704FA002CE3
:1042A00000DA2C463068C463BFE70022FCF7FBF954
:1042B000012239464046FCF7F6F9002C00DA2C467C
:1042C00030680464B1E70000000C0140FC010020EC
:1042D000000801400000000000000000010203048B
:1042E0000607080900000000010203040C4300084F
:1042F00000000020B4010000F8030008EC430008AF
:10430000B40100207C1600006C3E0008230142121C
:1043100001120212031204120512061207120812E9
:1043200009120A120B120C120D120E120F92101318
:104330003D2B1B086D041A79041AA1041ACD041A26
:104340001D041A49041E040309041249130202162B
:104350004083044057260201020301031A1A031383
:1043600059041B0855041A51041A7D04192F896E2B
:104370005324F41B0A069D212A401C1C09024357A2
:10438000111DC0320904B51A020B130524161001C1
:10439000052401100901042402020524061701075F
:1043A000058203081C1009048D320A1D070501024D
:1043B000432C070581070938442A40072A81071141
:1043C0002B0907440A3B044413E1281B0849041342
:1043D000C92942081A8D0C13D5271B081B08C11ABE
:0C43E000C9102ABD1C19045AB11C0000B1
:04000005080000ED02
:00000001FF
